{
  "contractName": "Lottery",
  "abi": [
    {
      "inputs": [],
      "stateMutability": "nonpayable",
      "type": "constructor"
    },
    {
      "inputs": [
        {
          "internalType": "uint256",
          "name": "amnt",
          "type": "uint256"
        }
      ],
      "name": "depositTL",
      "outputs": [],
      "stateMutability": "nonpayable",
      "type": "function"
    },
    {
      "inputs": [
        {
          "internalType": "uint256",
          "name": "amnt",
          "type": "uint256"
        }
      ],
      "name": "withdrawTL",
      "outputs": [],
      "stateMutability": "nonpayable",
      "type": "function"
    },
    {
      "inputs": [
        {
          "internalType": "address",
          "name": "sender",
          "type": "address"
        }
      ],
      "name": "tlBalance",
      "outputs": [
        {
          "internalType": "uint256",
          "name": "",
          "type": "uint256"
        }
      ],
      "stateMutability": "view",
      "type": "function"
    },
    {
      "inputs": [
        {
          "internalType": "uint256",
          "name": "random",
          "type": "uint256"
        }
      ],
      "name": "attemptBuying",
      "outputs": [],
      "stateMutability": "nonpayable",
      "type": "function"
    },
    {
      "inputs": [
        {
          "internalType": "uint256",
          "name": "ticketno",
          "type": "uint256"
        },
        {
          "internalType": "uint256",
          "name": "rnd_number",
          "type": "uint256"
        }
      ],
      "name": "revealRndNumber",
      "outputs": [],
      "stateMutability": "nonpayable",
      "type": "function"
    },
    {
      "inputs": [
        {
          "internalType": "uint256",
          "name": "lottery_no",
          "type": "uint256"
        }
      ],
      "name": "getLastOwnedTicketNo",
      "outputs": [
        {
          "internalType": "uint256",
          "name": "",
          "type": "uint256"
        },
        {
          "internalType": "uint8",
          "name": "status",
          "type": "uint8"
        }
      ],
      "stateMutability": "view",
      "type": "function"
    },
    {
      "inputs": [
        {
          "internalType": "uint256",
          "name": "i",
          "type": "uint256"
        },
        {
          "internalType": "uint256",
          "name": "lottery_no",
          "type": "uint256"
        }
      ],
      "name": "getIthOwnedTicketNo",
      "outputs": [
        {
          "internalType": "uint256",
          "name": "",
          "type": "uint256"
        },
        {
          "internalType": "uint8",
          "name": "status",
          "type": "uint8"
        }
      ],
      "stateMutability": "view",
      "type": "function"
    },
    {
      "inputs": [
        {
          "internalType": "uint256",
          "name": "unixtimeinweek",
          "type": "uint256"
        }
      ],
      "name": "getLotteryNo",
      "outputs": [
        {
          "internalType": "uint256",
          "name": "lottery_no",
          "type": "uint256"
        }
      ],
      "stateMutability": "pure",
      "type": "function"
    },
    {
      "inputs": [
        {
          "internalType": "uint256",
          "name": "lottery_no",
          "type": "uint256"
        }
      ],
      "name": "getTotalLotteryMoneyCollected",
      "outputs": [
        {
          "internalType": "uint256",
          "name": "amount",
          "type": "uint256"
        }
      ],
      "stateMutability": "view",
      "type": "function"
    },
    {
      "inputs": [
        {
          "internalType": "uint256",
          "name": "ticket_no",
          "type": "uint256"
        },
        {
          "internalType": "uint256",
          "name": "lottery_no",
          "type": "uint256"
        }
      ],
      "name": "collectTicketRefund",
      "outputs": [],
      "stateMutability": "nonpayable",
      "type": "function"
    },
    {
      "inputs": [],
      "name": "timeSinceStart",
      "outputs": [
        {
          "internalType": "uint256",
          "name": "",
          "type": "uint256"
        }
      ],
      "stateMutability": "view",
      "type": "function"
    },
    {
      "inputs": [],
      "name": "getCurrentStep",
      "outputs": [
        {
          "internalType": "uint256",
          "name": "",
          "type": "uint256"
        }
      ],
      "stateMutability": "view",
      "type": "function"
    },
    {
      "inputs": [
        {
          "internalType": "uint256",
          "name": "ticket_no",
          "type": "uint256"
        },
        {
          "internalType": "uint256",
          "name": "lottery_no",
          "type": "uint256"
        }
      ],
      "name": "checkIfTicketWon",
      "outputs": [
        {
          "internalType": "uint256",
          "name": "amount",
          "type": "uint256"
        }
      ],
      "stateMutability": "nonpayable",
      "type": "function"
    },
    {
      "inputs": [
        {
          "internalType": "uint256",
          "name": "ticket_no",
          "type": "uint256"
        },
        {
          "internalType": "uint256",
          "name": "lottery_no",
          "type": "uint256"
        }
      ],
      "name": "collectTicketPrize",
      "outputs": [],
      "stateMutability": "nonpayable",
      "type": "function"
    },
    {
      "inputs": [
        {
          "internalType": "uint256",
          "name": "i",
          "type": "uint256"
        },
        {
          "internalType": "uint256",
          "name": "lottery_no",
          "type": "uint256"
        }
      ],
      "name": "getIthWinningTicket",
      "outputs": [
        {
          "internalType": "uint256",
          "name": "ticket_no",
          "type": "uint256"
        },
        {
          "internalType": "uint256",
          "name": "amount",
          "type": "uint256"
        }
      ],
      "stateMutability": "nonpayable",
      "type": "function"
    }
  ],
  "bytecode": "0x60806040523480156200001157600080fd5b506040516200002090620000b4565b604051809103906000f0801580156200003d573d6000803e3d6000fd5b50600080546001600160a01b0319166001600160a01b03929092169190911790556040516200006c90620000c2565b604051809103906000f08015801562000089573d6000803e3d6000fd5b50600180546001600160a01b0319166001600160a01b039290921691909117905542600255620000d0565b610bd28062001ecf83390190565b611b9e8062002aa183390190565b611def80620000e06000396000f3fe608060405234801561001057600080fd5b50600436106100f55760003560e01c80638e36b5a211610097578063a06cc71a11610066578063a06cc71a146101e1578063bfdb6bf5146101f4578063df3c725c14610207578063e54778b51461021a57600080fd5b80638e36b5a2146101955780639329c987146101a85780639c7278ca146101bb5780639eb76341146101ce57600080fd5b806349c67e3c116100d357806349c67e3c1461015257806355a7365414610167578063666378aa1461017a57806367fc6dea1461018d57600080fd5b80631d3824ea146100fa5780632b8bdc001461011557806348367d1e1461013f575b600080fd5b610102610242565b6040519081526020015b60405180910390f35b610128610123366004611a9e565b61027b565b6040805192835260ff90911660208301520161010c565b61012861014d366004611ab7565b610411565b610165610160366004611a9e565b6105eb565b005b610165610175366004611ab7565b610653565b610102610188366004611a9e565b61094c565b61010261099b565b6101026101a3366004611a9e565b6109b0565b6101656101b6366004611a9e565b6109d9565b6101656101c9366004611ab7565b610a72565b6101656101dc366004611ab7565b610e39565b6101026101ef366004611ab7565b61114e565b610165610202366004611a9e565b61133f565b610102610215366004611ad9565b6114da565b61022d610228366004611ab7565b611549565b6040805192835260208301919091520161010c565b60006001610251606482611b18565b61025961099b565b6102639190611b46565b1115610270576002610273565b60015b60ff16905090565b6000808261028a6101a361099b565b8111156102b25760405162461bcd60e51b81526004016102a990611b5a565b60405180910390fd5b60015460405163ca15ed7160e01b8152336004820152602481018690526000916001600160a01b03169063ca15ed7190604401602060405180830381865afa158015610302573d6000803e3d6000fd5b505050506040513d601f19601f820116820180604052508101906103269190611b91565b6000868152600360205260408120805492935090918390811061034b5761034b611baa565b906000526020600020906005020160040160029054906101000a900460ff1661040157600086815260036020526040902080548390811061038e5761038e611baa565b906000526020600020906005020160040160019054906101000a900460ff166103fa5760008681526003602052604090208054839081106103d1576103d1611baa565b600091825260209091206004600590920201015460ff166103f3576000610404565b6001610404565b6002610404565b60035b9194509092505050915091565b600080826104206101a361099b565b81111561043f5760405162461bcd60e51b81526004016102a990611b5a565b600085116104845760405162461bcd60e51b81526020600482015260126024820152712cb7ba9031b0b73737ba1039b2b73210181760711b60448201526064016102a9565b600154604051635ce495d360e11b815233600482015260248101869052604481018790526000916001600160a01b03169063b9c92ba690606401602060405180830381865afa1580156104db573d6000803e3d6000fd5b505050506040513d601f19601f820116820180604052508101906104ff9190611b91565b6000868152600360205260408120805492935090918390811061052457610524611baa565b906000526020600020906005020160040160029054906101000a900460ff166105da57600086815260036020526040902080548390811061056757610567611baa565b906000526020600020906005020160040160019054906101000a900460ff166105d35760008681526003602052604090208054839081106105aa576105aa611baa565b600091825260209091206004600590920201015460ff166105cc5760006105dd565b60016105dd565b60026105dd565b60035b919791965090945050505050565b60005460405163381f712f60e01b8152600481018390523360248201526001600160a01b039091169063381f712f906044015b600060405180830381600087803b15801561063857600080fd5b505af115801561064c573d6000803e3d6000fd5b5050505050565b8061065f6101a361099b565b81111561067e5760405162461bcd60e51b81526004016102a990611b5a565b6000828152600360205260409020548290849081106106af5760405162461bcd60e51b81526004016102a990611bc0565b60008281526003602052604090208054339190839081106106d2576106d2611baa565b60009182526020909120600160059092020101546001600160a01b03161461070c5760405162461bcd60e51b81526004016102a990611bf0565b83806107196101a361099b565b116107365760405162461bcd60e51b81526004016102a990611c27565b600085815260036020526040902080548790811061075657610756611baa565b600091825260209091206004600590920201015460ff16156107d55760405162461bcd60e51b815260206004820152603260248201527f596f752063616e6e6f7420726566756e64206265636175736520796f7572207460448201527134b1b5b2ba1034b9903932bb32b0b632b21760711b60648201526084016102a9565b60008581526003602052604090208054879081106107f5576107f5611baa565b600091825260209091206005909102016004015462010000900460ff16156108855760405162461bcd60e51b815260206004820152603960248201527f596f752063616e6e6f7420726566756e64206265636175736520796f7572207460448201527f69636b657420697320726566756e646564206265666f72652e0000000000000060648201526084016102a9565b6000546001600160a01b031663381f712f6108a26002600a611c5e565b6040516001600160e01b031960e084901b1681526004810191909152336024820152604401600060405180830381600087803b1580156108e157600080fd5b505af11580156108f5573d6000803e3d6000fd5b50505060008681526003602052604090208054600192508890811061091c5761091c611baa565b906000526020600020906005020160040160026101000a81548160ff021916908315150217905550505050505050565b60008161095a6101a361099b565b8111156109795760405162461bcd60e51b81526004016102a990611b5a565b60008381526003602052604090205461099490600a90611c72565b9392505050565b6000600254426109ab9190611c91565b905090565b60006109be60646001611b18565b6109c89083611c5e565b6109d3906001611b18565b92915050565b806109e3336114da565b1015610a3b5760405162461bcd60e51b815260206004820152602160248201527f596f752068617665206e6f742074686174206d75636820544c20746f6b656e736044820152601760f91b60648201526084016102a9565b600054604051637a158c2160e11b8152600481018390523360248201526001600160a01b039091169063f42b18429060440161061e565b80610a7e6101a361099b565b811115610a9d5760405162461bcd60e51b81526004016102a990611b5a565b8180610aaa6101a361099b565b11610ac75760405162461bcd60e51b81526004016102a990611c27565b60008181526003602052604090206001015460ff16610b95576001546000906001600160a01b0316632c8eead483610afe8161094c565b6040516001600160e01b031960e085901b168152600481019290925260248201526044016000604051808303816000875af1158015610b41573d6000803e3d6000fd5b505050506040513d6000823e601f3d908101601f19168201604052610b699190810190611cbe565b9050610b7581836117d1565b5060008181526003602052604090206001908101805460ff191690911790555b600083815260036020526040902054839085908110610bc65760405162461bcd60e51b81526004016102a990611bc0565b6000828152600360205260409020805433919083908110610be957610be9611baa565b60009182526020909120600160059092020101546001600160a01b031614610c235760405162461bcd60e51b81526004016102a990611bf0565b6000858152600360205260408120805488908110610c4357610c43611baa565b90600052602060002090600502016003015411610ca25760405162461bcd60e51b815260206004820152601e60248201527f5469636b657420646f6573206e6f742077696e20616e79207072697a652e000060448201526064016102a9565b6000858152600360205260409020805487908110610cc257610cc2611baa565b6000918252602090912060059091020160040154610100900460ff1615610d3c5760405162461bcd60e51b815260206004820152602860248201527f5469636b6574207072697a652068617320616c7265616479206265656e20636f604482015267363632b1ba32b21760c11b60648201526084016102a9565b600080548682526003602052604090912080546001600160a01b039092169163381f712f919089908110610d7257610d72611baa565b906000526020600020906005020160030154336040518363ffffffff1660e01b8152600401610db49291909182526001600160a01b0316602082015260400190565b600060405180830381600087803b158015610dce57600080fd5b505af1158015610de2573d6000803e3d6000fd5b505050600086815260036020526040902080546001925088908110610e0957610e09611baa565b906000526020600020906005020160040160016101000a81548160ff021916908315150217905550505050505050565b610e41610242565b600214610e905760405162461bcd60e51b815260206004820152601860248201527f4974206973206e6f742072657665616c20706572696f642e000000000000000060448201526064016102a9565b610e9b6101a361099b565b60008181526003602052604090205483908110610eca5760405162461bcd60e51b81526004016102a990611bc0565b6000828152600360205260409020805433919083908110610eed57610eed611baa565b60009182526020909120600160059092020101546001600160a01b031614610f275760405162461bcd60e51b81526004016102a990611bf0565b6000610f346101a361099b565b600081815260036020526040902080549192509086908110610f5857610f58611baa565b600091825260209091206004600590920201015460ff1615610fcb5760405162461bcd60e51b815260206004820152602660248201527f596f75206861766520616c72656164792072657665616c65642074686973207460448201526534b1b5b2ba1760d11b60648201526084016102a9565b60008433604051602001610ffb92919091825260601b6bffffffffffffffffffffffff1916602082015260340190565b60408051601f1981840301815291815281516020928301206000858152600390935291208054919250908790811061103557611035611baa565b90600052602060002090600502016002015481146110955760405162461bcd60e51b815260206004820152601d60248201527f456e7465726564206e756d6265727320617265206e6f7420747275652e00000060448201526064016102a9565b6001546040516335eb9e2b60e01b81526004810188905260248101879052604481018490526001600160a01b03909116906335eb9e2b90606401600060405180830381600087803b1580156110e957600080fd5b505af11580156110fd573d6000803e3d6000fd5b50505060008381526003602052604090208054600192508890811061112457611124611baa565b60009182526020909120600590910201600401805460ff1916911515919091179055505050505050565b60008161115c6101a361099b565b81111561117b5760405162461bcd60e51b81526004016102a990611b5a565b82806111886101a361099b565b116111a55760405162461bcd60e51b81526004016102a990611c27565b60008181526003602052604090206001015460ff16611273576001546000906001600160a01b0316632c8eead4836111dc8161094c565b6040516001600160e01b031960e085901b168152600481019290925260248201526044016000604051808303816000875af115801561121f573d6000803e3d6000fd5b505050506040513d6000823e601f3d908101601f191682016040526112479190810190611cbe565b905061125381836117d1565b5060008181526003602052604090206001908101805460ff191690911790555b6000848152600360205260409020548490869081106112a45760405162461bcd60e51b81526004016102a990611bc0565b60008281526003602052604090208054339190839081106112c7576112c7611baa565b60009182526020909120600160059092020101546001600160a01b0316146113015760405162461bcd60e51b81526004016102a990611bf0565b600086815260036020526040902080548890811061132157611321611baa565b90600052602060002090600502016003015494505050505092915050565b611347610242565b6001146113965760405162461bcd60e51b815260206004820152601a60248201527f4974206973206e6f7420707572636861736520706572696f642e00000000000060448201526064016102a9565b60006113a36101a361099b565b9050600a6113b0336114da565b10156114245760405162461bcd60e51b815260206004820152603760248201527f596f7520646f206e6f74206861766520656e6f75676820544c20546f6b656e7360448201527f2e205469636b6574207072696365206973203130544c2e00000000000000000060648201526084016102a9565b60008181526003602052604090205461271010156114845760405162461bcd60e51b815260206004820152601960248201527f416c6c20746865207469636b6574732061726520736f6c642e0000000000000060448201526064016102a9565b600082336040516020016114b492919091825260601b6bffffffffffffffffffffffff1916602082015260340190565b6040516020818303038152906040528051906020012090506114d5816118d7565b505050565b600080546040516370a0823160e01b81526001600160a01b038481166004830152909116906370a0823190602401602060405180830381865afa158015611525573d6000803e3d6000fd5b505050506040513d601f19601f820116820180604052508101906109d39190611b91565b600080826115586101a361099b565b8111156115775760405162461bcd60e51b81526004016102a990611b5a565b83806115846101a361099b565b116115a15760405162461bcd60e51b81526004016102a990611c27565b60008181526003602052604090206001015460ff1661166f576001546000906001600160a01b0316632c8eead4836115d88161094c565b6040516001600160e01b031960e085901b168152600481019290925260248201526044016000604051808303816000875af115801561161b573d6000803e3d6000fd5b505050506040513d6000823e601f3d908101601f191682016040526116439190810190611cbe565b905061164f81836117d1565b5060008181526003602052604090206001908101805460ff191690911790555b60015460405163097c079360e01b8152600481018790526000916001600160a01b03169063097c079390602401602060405180830381865afa1580156116b9573d6000803e3d6000fd5b505050506040513d601f19601f820116820180604052508101906116dd9190611b91565b90508087111561173b5760405162461bcd60e51b8152602060048201526024808201527f5468657265206973206e6f2077696e6e657220776974682074686174206e756d6044820152633132b91760e11b60648201526084016102a9565b6001546001600160a01b0316634d73811788886117578161094c565b6040516001600160e01b031960e086901b1681526004810193909352602483019190915260448201526064016040805180830381865afa15801561179f573d6000803e3d6000fd5b505050506040513d601f19601f820116820180604052508101906117c39190611d7c565b945094505050509250929050565b60006117dc8261094c565b905060005b83518110156118d157600180546001600160a01b0316906386bc4e9390611809908490611b18565b846040518363ffffffff1660e01b8152600401611830929190918252602082015260400190565b602060405180830381865afa15801561184d573d6000803e3d6000fd5b505050506040513d601f19601f820116820180604052508101906118719190611b91565b6000848152600360205260409020855186908490811061189357611893611baa565b6020026020010151815481106118ab576118ab611baa565b6000918252602090912060036005909202010155806118c981611da0565b9150506117e1565b50505050565b60006118e46101a361099b565b600154600082815260036020526040908190205490516304a4955360e11b81523360048201526024810191909152604481018390529192506001600160a01b0316906309492aa690606401600060405180830381600087803b15801561194957600080fd5b505af115801561195d573d6000803e3d6000fd5b5050600054604051637a158c2160e11b8152600a60048201523360248201526001600160a01b03909116925063f42b18429150604401600060405180830381600087803b1580156119ad57600080fd5b505af11580156119c1573d6000803e3d6000fd5b505050600091825250600360208181526040808420815160e081018352815480825233828601908152938201978852606082018781526080830188815260a0840189815260c085018a815260018086018855968b529790992093516005909302909301918255935192810180546001600160a01b0319166001600160a01b0390941693909317909255955160028201559051928101929092559251600490910180549251935161ffff1990931691151561ff00191691909117610100931515939093029290921762ff000019166201000091151591909102179055565b600060208284031215611ab057600080fd5b5035919050565b60008060408385031215611aca57600080fd5b50508035926020909101359150565b600060208284031215611aeb57600080fd5b81356001600160a01b038116811461099457600080fd5b634e487b7160e01b600052601160045260246000fd5b60008219821115611b2b57611b2b611b02565b500190565b634e487b7160e01b600052601260045260246000fd5b600082611b5557611b55611b30565b500690565b60208082526017908201527f4c6f747465727920646f6573206e6f742065786973742e000000000000000000604082015260600190565b600060208284031215611ba357600080fd5b5051919050565b634e487b7160e01b600052603260045260246000fd5b6020808252601690820152752a34b1b5b2ba103237b2b9903737ba1032bc34b9ba1760511b604082015260600190565b60208082526018908201527f54686973206973206e6f7420796f7572207469636b65742e0000000000000000604082015260600190565b60208082526017908201527f4c6f747465727920697320696e2070726f67726573732e000000000000000000604082015260600190565b600082611c6d57611c6d611b30565b500490565b6000816000190483118215151615611c8c57611c8c611b02565b500290565b600082821015611ca357611ca3611b02565b500390565b634e487b7160e01b600052604160045260246000fd5b60006020808385031215611cd157600080fd5b825167ffffffffffffffff80821115611ce957600080fd5b818501915085601f830112611cfd57600080fd5b815181811115611d0f57611d0f611ca8565b8060051b604051601f19603f83011681018181108582111715611d3457611d34611ca8565b604052918252848201925083810185019188831115611d5257600080fd5b938501935b82851015611d7057845184529385019392850192611d57565b98975050505050505050565b60008060408385031215611d8f57600080fd5b505080516020909101519092909150565b600060018201611db257611db2611b02565b506001019056fea26469706673582212205cee074d95d280a62ead6477539b7b24f8bd12632ceb47a5be2e1233ef81f31b64736f6c634300080e003360806040523480156200001157600080fd5b50604080518082018252600b81526a5475726b6973684c69726160a81b602080830191825283518085019094526002845261151360f21b9084015281519192916200005f916003916200018f565b508051620000759060049060208401906200018f565b5050600580546001600160a01b03191633908117909155620000a19150670de0b6b3a7640000620000a7565b62000298565b6001600160a01b038216620001025760405162461bcd60e51b815260206004820152601f60248201527f45524332303a206d696e7420746f20746865207a65726f206164647265737300604482015260640160405180910390fd5b806002600082825462000116919062000235565b90915550506001600160a01b038216600090815260208190526040812080548392906200014590849062000235565b90915550506040518181526001600160a01b038316906000907fddf252ad1be2c89b69c2b068fc378daa952ba7f163c4a11628f55a4df523b3ef9060200160405180910390a35050565b8280546200019d906200025c565b90600052602060002090601f016020900481019282620001c157600085556200020c565b82601f10620001dc57805160ff19168380011785556200020c565b828001600101855582156200020c579182015b828111156200020c578251825591602001919060010190620001ef565b506200021a9291506200021e565b5090565b5b808211156200021a57600081556001016200021f565b600082198211156200025757634e487b7160e01b600052601160045260246000fd5b500190565b600181811c908216806200027157607f821691505b6020821081036200029257634e487b7160e01b600052602260045260246000fd5b50919050565b61092a80620002a86000396000f3fe608060405234801561001057600080fd5b50600436106100cf5760003560e01c8063395093511161008c578063a457c2d711610066578063a457c2d7146101a2578063a9059cbb146101b5578063dd62ed3e146101c8578063f42b1842146101db57600080fd5b8063395093511461015e57806370a082311461017157806395d89b411461019a57600080fd5b806306fdde03146100d4578063095ea7b3146100f257806318160ddd1461011557806323b872dd14610127578063313ce5671461013a578063381f712f14610149575b600080fd5b6100dc6101ee565b6040516100e99190610745565b60405180910390f35b6101056101003660046107b6565b610280565b60405190151581526020016100e9565b6002545b6040519081526020016100e9565b6101056101353660046107e0565b610298565b604051601281526020016100e9565b61015c61015736600461081c565b6102bc565b005b61010561016c3660046107b6565b6102d7565b61011961017f366004610848565b6001600160a01b031660009081526020819052604090205490565b6100dc6102f9565b6101056101b03660046107b6565b610308565b6101056101c33660046107b6565b610388565b6101196101d636600461086a565b610396565b61015c6101e936600461081c565b6103c1565b6060600380546101fd90610894565b80601f016020809104026020016040519081016040528092919081815260200182805461022990610894565b80156102765780601f1061024b57610100808354040283529160200191610276565b820191906000526020600020905b81548152906001019060200180831161025957829003601f168201915b5050505050905090565b60003361028e8185856103d9565b5060019392505050565b6000336102a68582856104fd565b6102b1858585610577565b506001949350505050565b6005546102d3906001600160a01b03168284610577565b5050565b60003361028e8185856102ea8383610396565b6102f491906108ce565b6103d9565b6060600480546101fd90610894565b600033816103168286610396565b90508381101561037b5760405162461bcd60e51b815260206004820152602560248201527f45524332303a2064656372656173656420616c6c6f77616e63652062656c6f77604482015264207a65726f60d81b60648201526084015b60405180910390fd5b6102b182868684036103d9565b60003361028e818585610577565b6001600160a01b03918216600090815260016020908152604080832093909416825291909152205490565b6005546102d39082906001600160a01b031684610577565b6001600160a01b03831661043b5760405162461bcd60e51b8152602060048201526024808201527f45524332303a20617070726f76652066726f6d20746865207a65726f206164646044820152637265737360e01b6064820152608401610372565b6001600160a01b03821661049c5760405162461bcd60e51b815260206004820152602260248201527f45524332303a20617070726f766520746f20746865207a65726f206164647265604482015261737360f01b6064820152608401610372565b6001600160a01b0383811660008181526001602090815260408083209487168084529482529182902085905590518481527f8c5be1e5ebec7d5bd14f71427d1e84f3dd0314c0f7b2291e5b200ac8c7c3b925910160405180910390a3505050565b60006105098484610396565b9050600019811461057157818110156105645760405162461bcd60e51b815260206004820152601d60248201527f45524332303a20696e73756666696369656e7420616c6c6f77616e63650000006044820152606401610372565b61057184848484036103d9565b50505050565b6001600160a01b0383166105db5760405162461bcd60e51b815260206004820152602560248201527f45524332303a207472616e736665722066726f6d20746865207a65726f206164604482015264647265737360d81b6064820152608401610372565b6001600160a01b03821661063d5760405162461bcd60e51b815260206004820152602360248201527f45524332303a207472616e7366657220746f20746865207a65726f206164647260448201526265737360e81b6064820152608401610372565b6001600160a01b038316600090815260208190526040902054818110156106b55760405162461bcd60e51b815260206004820152602660248201527f45524332303a207472616e7366657220616d6f756e7420657863656564732062604482015265616c616e636560d01b6064820152608401610372565b6001600160a01b038085166000908152602081905260408082208585039055918516815290812080548492906106ec9084906108ce565b92505081905550826001600160a01b0316846001600160a01b03167fddf252ad1be2c89b69c2b068fc378daa952ba7f163c4a11628f55a4df523b3ef8460405161073891815260200190565b60405180910390a3610571565b600060208083528351808285015260005b8181101561077257858101830151858201604001528201610756565b81811115610784576000604083870101525b50601f01601f1916929092016040019392505050565b80356001600160a01b03811681146107b157600080fd5b919050565b600080604083850312156107c957600080fd5b6107d28361079a565b946020939093013593505050565b6000806000606084860312156107f557600080fd5b6107fe8461079a565b925061080c6020850161079a565b9150604084013590509250925092565b6000806040838503121561082f57600080fd5b8235915061083f6020840161079a565b90509250929050565b60006020828403121561085a57600080fd5b6108638261079a565b9392505050565b6000806040838503121561087d57600080fd5b6108868361079a565b915061083f6020840161079a565b600181811c908216806108a857607f821691505b6020821081036108c857634e487b7160e01b600052602260045260246000fd5b50919050565b600082198211156108ef57634e487b7160e01b600052601160045260246000fd5b50019056fea264697066735822122014428b94f6e6d59ad5a0bab43408071a6721367fc72ec11f24ed246938c3292464736f6c634300080e003360806040523480156200001157600080fd5b506040805180820182526006815265151a58dad95d60d21b60208083019182528351808501909452600384526254434b60e81b9084015281519192916200005b916000916200007a565b508051620000719060019060208401906200007a565b5050506200015c565b828054620000889062000120565b90600052602060002090601f016020900481019282620000ac5760008555620000f7565b82601f10620000c757805160ff1916838001178555620000f7565b82800160010185558215620000f7579182015b82811115620000f7578251825591602001919060010190620000da565b506200010592915062000109565b5090565b5b808211156200010557600081556001016200010a565b600181811c908216806200013557607f821691505b6020821081036200015657634e487b7160e01b600052602260045260246000fd5b50919050565b611a32806200016c6000396000f3fe608060405234801561001057600080fd5b506004361061014d5760003560e01c806358c7f7a5116100c3578063a22cb4651161007c578063a22cb46514610359578063b88d4fde1461036c578063b9c92ba61461037f578063c87b56dd14610392578063ca15ed71146103a5578063e985e9c5146103b857600080fd5b806358c7f7a5146102f25780636352211e1461030557806370a082311461031857806386bc4e931461032b57806386c7543b1461033e57806395d89b411461035157600080fd5b8063097c079311610115578063097c07931461021657806323b872dd146102445780632c8eead41461025757806335eb9e2b1461027757806342842e0e146102b75780634d738117146102ca57600080fd5b806301ffc9a71461015257806306fdde031461017a578063081812fc1461018f57806309492aa6146101ba578063095ea7b314610203575b600080fd5b610165610160366004611390565b6103f4565b60405190151581526020015b60405180910390f35b610182610446565b6040516101719190611405565b6101a261019d366004611418565b6104d8565b6040516001600160a01b039091168152602001610171565b6102016101c836600461144d565b6001600160a01b039092166000908152600660209081526040808320948352938152928120805460018101825590825292902090910155565b005b610201610211366004611480565b610572565b610236610224366004611418565b60009081526008602052604090205490565b604051908152602001610171565b6102016102523660046114aa565b610687565b61026a6102653660046114e6565b6106b8565b6040516101719190611508565b61020161028536600461154c565b600090815260096020908152604080832080549094189093556007815291812080546001810182559082529190200155565b6102016102c53660046114aa565b610833565b6102dd6102d836600461154c565b61084e565b60408051928352602083019190915201610171565b6102366103003660046114e6565b61089a565b6101a2610313366004611418565b610913565b610236610326366004611578565b61098a565b6102366103393660046114e6565b610a11565b61023661034c366004611418565b610a65565b610182610a8d565b610201610367366004611593565b610a9c565b61020161037a3660046115e5565b610aab565b61023661038d36600461144d565b610ae3565b6101826103a0366004611418565b610bb3565b6102366103b3366004611480565b610c9a565b6101656103c63660046116c1565b6001600160a01b03918216600090815260056020908152604080832093909416825291909152205460ff1690565b60006001600160e01b031982166380ac58cd60e01b148061042557506001600160e01b03198216635b5e139f60e01b145b8061044057506301ffc9a760e01b6001600160e01b03198316145b92915050565b606060008054610455906116f4565b80601f0160208091040260200160405190810160405280929190818152602001828054610481906116f4565b80156104ce5780601f106104a3576101008083540402835291602001916104ce565b820191906000526020600020905b8154815290600101906020018083116104b157829003601f168201915b5050505050905090565b6000818152600260205260408120546001600160a01b03166105565760405162461bcd60e51b815260206004820152602c60248201527f4552433732313a20617070726f76656420717565727920666f72206e6f6e657860448201526b34b9ba32b73a103a37b5b2b760a11b60648201526084015b60405180910390fd5b506000908152600460205260409020546001600160a01b031690565b600061057d82610913565b9050806001600160a01b0316836001600160a01b0316036105ea5760405162461bcd60e51b815260206004820152602160248201527f4552433732313a20617070726f76616c20746f2063757272656e74206f776e656044820152603960f91b606482015260840161054d565b336001600160a01b0382161480610606575061060681336103c6565b6106785760405162461bcd60e51b815260206004820152603860248201527f4552433732313a20617070726f76652063616c6c6572206973206e6f74206f7760448201527f6e6572206e6f7220617070726f76656420666f7220616c6c0000000000000000606482015260840161054d565b6106828383610d73565b505050565b6106913382610de1565b6106ad5760405162461bcd60e51b815260040161054d9061172e565b610682838383610ed8565b6000828152600760205260409020546060906107285760405162461bcd60e51b815260206004820152602960248201527f4e6f206f6e6520686173207375626d69747465642e205468657265206973206e60448201526837903bb4b73732b91760b91b606482015260840161054d565b600061073383610a65565b905060015b8181116107d057600085815260076020908152604080832054600990925282205461076490849061089a565b61076e9190611795565b60008781526008602090815260408083206007909252909120805492935090918390811061079e5761079e6117a9565b6000918252602080832090910154835460018101855593835291209091015550806107c8816117d5565b915050610738565b506000848152600860209081526040918290208054835181840281018401909452808452909183018282801561082557602002820191906000526020600020905b815481526020019060010190808311610811575b505050505091505092915050565b61068283838360405180602001604052806000815250610aab565b600082815260086020526040812081906108696001876117ee565b81548110610879576108796117a9565b906000526020600020015461088e8685610a11565b91509150935093915050565b600080826040516020016108b091815260200190565b60408051601f198184030181529190528051602090910120905060015b84811161090b576040805160208101849052016040516020818303038152906040528051906020012091508080610903906117d5565b9150506108cd565b509392505050565b6000818152600260205260408120546001600160a01b0316806104405760405162461bcd60e51b815260206004820152602960248201527f4552433732313a206f776e657220717565727920666f72206e6f6e657869737460448201526832b73a103a37b5b2b760b91b606482015260840161054d565b60006001600160a01b0382166109f55760405162461bcd60e51b815260206004820152602a60248201527f4552433732313a2062616c616e636520717565727920666f7220746865207a65604482015269726f206164647265737360b01b606482015260840161054d565b506001600160a01b031660009081526003602052604090205490565b60006002610a206001856117ee565b610a2b9060026118e9565b610a3590846118f5565b610a3f9190611795565b610a4a8460026118e9565b610a5490846118f5565b610a5e9190611909565b9392505050565b6000805b82610a758260026118e9565b10156104405780610a85816117d5565b915050610a69565b606060018054610455906116f4565b610aa7338383611074565b5050565b610ab53383610de1565b610ad15760405162461bcd60e51b815260040161054d9061172e565b610add84848484611142565b50505050565b6001600160a01b0383166000908152600660209081526040808320858452909152812054821115610b615760405162461bcd60e51b815260206004820152602260248201527f596f7520646f206e6f7420686176652074686174206d756368207469636b6574604482015261399760f11b606482015260840161054d565b6001600160a01b03841660009081526006602090815260408083208684529091529020610b8f6001846117ee565b81548110610b9f57610b9f6117a9565b906000526020600020015490509392505050565b6000818152600260205260409020546060906001600160a01b0316610c325760405162461bcd60e51b815260206004820152602f60248201527f4552433732314d657461646174613a2055524920717565727920666f72206e6f60448201526e3732bc34b9ba32b73a103a37b5b2b760891b606482015260840161054d565b6000610c4960408051602081019091526000815290565b90506000815111610c695760405180602001604052806000815250610a5e565b80610c7384611175565b604051602001610c84929190611921565b6040516020818303038152906040529392505050565b6001600160a01b0382166000908152600660209081526040808320848452909152812054610d1f5760405162461bcd60e51b815260206004820152602c60248201527f596f7520646f206e6f74206861766520616e79207469636b657420666f72207460448201526b3434b9903637ba3a32b93c9760a11b606482015260840161054d565b6001600160a01b038316600090815260066020908152604080832085845290915290208054610d50906001906117ee565b81548110610d6057610d606117a9565b9060005260206000200154905092915050565b600081815260046020526040902080546001600160a01b0319166001600160a01b0384169081179091558190610da882610913565b6001600160a01b03167f8c5be1e5ebec7d5bd14f71427d1e84f3dd0314c0f7b2291e5b200ac8c7c3b92560405160405180910390a45050565b6000818152600260205260408120546001600160a01b0316610e5a5760405162461bcd60e51b815260206004820152602c60248201527f4552433732313a206f70657261746f7220717565727920666f72206e6f6e657860448201526b34b9ba32b73a103a37b5b2b760a11b606482015260840161054d565b6000610e6583610913565b9050806001600160a01b0316846001600160a01b03161480610eac57506001600160a01b0380821660009081526005602090815260408083209388168352929052205460ff165b80610ed05750836001600160a01b0316610ec5846104d8565b6001600160a01b0316145b949350505050565b826001600160a01b0316610eeb82610913565b6001600160a01b031614610f4f5760405162461bcd60e51b815260206004820152602560248201527f4552433732313a207472616e736665722066726f6d20696e636f72726563742060448201526437bbb732b960d91b606482015260840161054d565b6001600160a01b038216610fb15760405162461bcd60e51b8152602060048201526024808201527f4552433732313a207472616e7366657220746f20746865207a65726f206164646044820152637265737360e01b606482015260840161054d565b610fbc600082610d73565b6001600160a01b0383166000908152600360205260408120805460019290610fe59084906117ee565b90915550506001600160a01b0382166000908152600360205260408120805460019290611013908490611909565b909155505060008181526002602052604080822080546001600160a01b0319166001600160a01b0386811691821790925591518493918716917fddf252ad1be2c89b69c2b068fc378daa952ba7f163c4a11628f55a4df523b3ef91a4505050565b816001600160a01b0316836001600160a01b0316036110d55760405162461bcd60e51b815260206004820152601960248201527f4552433732313a20617070726f766520746f2063616c6c657200000000000000604482015260640161054d565b6001600160a01b03838116600081815260056020908152604080832094871680845294825291829020805460ff191686151590811790915591519182527f17307eab39ab6107e8899845ad3d59bd9653f200f220920489ca2b5937696c31910160405180910390a3505050565b61114d848484610ed8565b61115984848484611276565b610add5760405162461bcd60e51b815260040161054d90611950565b60608160000361119c5750506040805180820190915260018152600360fc1b602082015290565b8160005b81156111c657806111b0816117d5565b91506111bf9050600a836118f5565b91506111a0565b60008167ffffffffffffffff8111156111e1576111e16115cf565b6040519080825280601f01601f19166020018201604052801561120b576020820181803683370190505b5090505b8415610ed0576112206001836117ee565b915061122d600a86611795565b611238906030611909565b60f81b81838151811061124d5761124d6117a9565b60200101906001600160f81b031916908160001a90535061126f600a866118f5565b945061120f565b60006001600160a01b0384163b1561136c57604051630a85bd0160e11b81526001600160a01b0385169063150b7a02906112ba9033908990889088906004016119a2565b6020604051808303816000875af19250505080156112f5575060408051601f3d908101601f191682019092526112f2918101906119df565b60015b611352573d808015611323576040519150601f19603f3d011682016040523d82523d6000602084013e611328565b606091505b50805160000361134a5760405162461bcd60e51b815260040161054d90611950565b805181602001fd5b6001600160e01b031916630a85bd0160e11b149050610ed0565b506001949350505050565b6001600160e01b03198116811461138d57600080fd5b50565b6000602082840312156113a257600080fd5b8135610a5e81611377565b60005b838110156113c85781810151838201526020016113b0565b83811115610add5750506000910152565b600081518084526113f18160208601602086016113ad565b601f01601f19169290920160200192915050565b602081526000610a5e60208301846113d9565b60006020828403121561142a57600080fd5b5035919050565b80356001600160a01b038116811461144857600080fd5b919050565b60008060006060848603121561146257600080fd5b61146b84611431565b95602085013595506040909401359392505050565b6000806040838503121561149357600080fd5b61149c83611431565b946020939093013593505050565b6000806000606084860312156114bf57600080fd5b6114c884611431565b92506114d660208501611431565b9150604084013590509250925092565b600080604083850312156114f957600080fd5b50508035926020909101359150565b6020808252825182820181905260009190848201906040850190845b8181101561154057835183529284019291840191600101611524565b50909695505050505050565b60008060006060848603121561156157600080fd5b505081359360208301359350604090920135919050565b60006020828403121561158a57600080fd5b610a5e82611431565b600080604083850312156115a657600080fd5b6115af83611431565b9150602083013580151581146115c457600080fd5b809150509250929050565b634e487b7160e01b600052604160045260246000fd5b600080600080608085870312156115fb57600080fd5b61160485611431565b935061161260208601611431565b925060408501359150606085013567ffffffffffffffff8082111561163657600080fd5b818701915087601f83011261164a57600080fd5b81358181111561165c5761165c6115cf565b604051601f8201601f19908116603f01168101908382118183101715611684576116846115cf565b816040528281528a602084870101111561169d57600080fd5b82602086016020830137600060208483010152809550505050505092959194509250565b600080604083850312156116d457600080fd5b6116dd83611431565b91506116eb60208401611431565b90509250929050565b600181811c9082168061170857607f821691505b60208210810361172857634e487b7160e01b600052602260045260246000fd5b50919050565b60208082526031908201527f4552433732313a207472616e736665722063616c6c6572206973206e6f74206f6040820152701ddb995c881b9bdc88185c1c1c9bdd9959607a1b606082015260800190565b634e487b7160e01b600052601260045260246000fd5b6000826117a4576117a461177f565b500690565b634e487b7160e01b600052603260045260246000fd5b634e487b7160e01b600052601160045260246000fd5b6000600182016117e7576117e76117bf565b5060010190565b600082821015611800576118006117bf565b500390565b600181815b80851115611840578160001904821115611826576118266117bf565b8085161561183357918102915b93841c939080029061180a565b509250929050565b60008261185757506001610440565b8161186457506000610440565b816001811461187a5760028114611884576118a0565b6001915050610440565b60ff841115611895576118956117bf565b50506001821b610440565b5060208310610133831016604e8410600b84101617156118c3575081810a610440565b6118cd8383611805565b80600019048211156118e1576118e16117bf565b029392505050565b6000610a5e8383611848565b6000826119045761190461177f565b500490565b6000821982111561191c5761191c6117bf565b500190565b600083516119338184602088016113ad565b8351908301906119478183602088016113ad565b01949350505050565b60208082526032908201527f4552433732313a207472616e7366657220746f206e6f6e20455243373231526560408201527131b2b4bb32b91034b6b83632b6b2b73a32b960711b606082015260800190565b6001600160a01b03858116825284166020820152604081018390526080606082018190526000906119d5908301846113d9565b9695505050505050565b6000602082840312156119f157600080fd5b8151610a5e8161137756fea2646970667358221220a3f863c5709e43a13cc91cf865503bfec7551b158c5238a7725510d15420ac4864736f6c634300080e0033",
  "immutableReferences": {},
  "source": "// SPDX-License-Identifier: UNLICENSED\r\n\r\npragma solidity >=0.7.0 <0.9.0;\r\n\r\nimport \"./TL.sol\";\r\nimport \"./Ticket.sol\";\r\n\r\ncontract Lottery {\r\n    TLToken tl;\r\n    TicketToken ticket;\r\n    uint256 constant ticketPrice = 10;\r\n    uint256 constant purchaseDuration = 1 seconds; //how much time players can buy tickets in each lottery\r\n    uint256 constant revealDuration = 100 seconds; //how much time players can reveal tickets in each lottery\r\n    uint256 constant lotteryDuration = purchaseDuration + revealDuration; // how much time each lottery will be active\r\n    uint256 startDate; //when the contract started (will be used to determine how much time spend since start)\r\n\r\n    struct Lotteries {\r\n        Tickets[] tickets;\r\n        bool areWinnersChosen;\r\n    }\r\n    \r\n    struct Tickets {\r\n        uint256 id;\r\n        address owner;\r\n        bytes32 hash;\r\n        uint256 reward;\r\n        bool isRevealed;\r\n        bool isRedeemed;\r\n        bool isRefunded;\r\n    }\r\n\r\n    mapping(uint256 => Lotteries) lotteries;\r\n    \r\n    constructor(){\r\n        tl = new TLToken();\r\n        ticket = new TicketToken();\r\n        startDate = block.timestamp;\r\n    }\r\n\r\n    modifier lotteryExists(uint256 lotteryNo){\r\n        require(lotteryNo <= getLotteryNo(timeSinceStart()), \"Lottery does not exist.\");\r\n        _;\r\n    }\r\n\r\n    modifier purchasePeriod(){\r\n        require(getCurrentStep() == 1, \"It is not purchase period.\");\r\n        _;\r\n    }\r\n\r\n    modifier revealPeriod(){\r\n        require(getCurrentStep() == 2, \"It is not reveal period.\");\r\n        _;\r\n    }\r\n\r\n    modifier ticketOwner(uint lottery_no, uint ticket_no){\r\n        require(lotteries[lottery_no].tickets.length > ticket_no, \"Ticket does not exist.\");\r\n        require(lotteries[lottery_no].tickets[ticket_no].owner == msg.sender, \"This is not your ticket.\");\r\n        _;\r\n    }\r\n\r\n    modifier lotteryPrizes(uint lottery_no){\r\n        require(getLotteryNo(timeSinceStart()) > lottery_no, \"Lottery is in progress.\");\r\n        if(!lotteries[lottery_no].areWinnersChosen){\r\n            uint256[] memory winners = ticket.chooseWinners(lottery_no, getTotalLotteryMoneyCollected(lottery_no));\r\n            setWinners(winners, lottery_no);\r\n            lotteries[lottery_no].areWinnersChosen = true;\r\n        }\r\n        _;\r\n    }\r\n\r\n    modifier lotteryEnded(uint lottery_no){\r\n        require(getLotteryNo(timeSinceStart()) > lottery_no, \"Lottery is in progress.\");\r\n        _;\r\n    }\r\n\r\n    function depositTL(uint amnt) public {\r\n        tl.addTL(amnt, msg.sender);\r\n    }\r\n\r\n    function withdrawTL(uint amnt) public {\r\n        require(tlBalance(msg.sender) >= amnt, \"You have not that much TL tokens.\");\r\n        tl.subtractTL(amnt, msg.sender);\r\n    }\r\n\r\n    function tlBalance(address sender) public view returns(uint256){\r\n        return tl.balanceOf(sender);\r\n    }\r\n\r\n    function buyTicket(bytes32 hash_rnd_number) private {\r\n        uint lotteryNo = getLotteryNo(timeSinceStart());\r\n        ticket.addTicket(msg.sender, lotteries[lotteryNo].tickets.length, lotteryNo);\r\n        tl.subtractTL(ticketPrice, msg.sender);\r\n        lotteries[lotteryNo].tickets.push(\r\n            Tickets({\r\n                id: lotteries[lotteryNo].tickets.length,\r\n                owner: msg.sender,\r\n                hash: hash_rnd_number,\r\n                reward: 0,\r\n                isRevealed: false,\r\n                isRedeemed: false,\r\n                isRefunded: false\r\n            })\r\n        );\r\n    }\r\n\r\n    //will be fired to buy ticket before \"buyTicket\" function\r\n    function attemptBuying(uint256 random) public purchasePeriod(){\r\n        uint lotteryNo = getLotteryNo(timeSinceStart());\r\n        require(tlBalance(msg.sender) >= ticketPrice, \"You do not have enough TL Tokens. Ticket price is 10TL.\");\r\n        require(lotteries[lotteryNo].tickets.length <= 10**4, \"All the tickets are sold.\"); //to prevent running out of gas or TL tokens\r\n        bytes32 hash = keccak256(abi.encodePacked(random, msg.sender));\r\n        buyTicket(hash);\r\n    }\r\n\r\n    function revealRndNumber(uint ticketno, uint rnd_number) public revealPeriod() ticketOwner(getLotteryNo(timeSinceStart()), ticketno){\r\n        uint lotteryNo = getLotteryNo(timeSinceStart());\r\n        require(lotteries[lotteryNo].tickets[ticketno].isRevealed == false, \"You have already revealed this ticket.\");\r\n        bytes32 hash = keccak256(abi.encodePacked(rnd_number, msg.sender));\r\n        require(hash == lotteries[lotteryNo].tickets[ticketno].hash, \"Entered numbers are not true.\");\r\n        ticket.revealHash(ticketno, rnd_number, lotteryNo);\r\n        lotteries[lotteryNo].tickets[ticketno].isRevealed = true;\r\n    }\r\n\r\n    function getLastOwnedTicketNo(uint lottery_no) public view lotteryExists(lottery_no) returns(uint,uint8 status){\r\n        uint ticketno = ticket.lastTicketOfAccount(msg.sender, lottery_no);\r\n        uint8 _status = lotteries[lottery_no].tickets[ticketno].isRefunded ? 3 :lotteries[lottery_no].tickets[ticketno].isRedeemed ? 2 : lotteries[lottery_no].tickets[ticketno].isRevealed ? 1 : 0; //will be explained to user in interface\r\n        \r\n        return (ticketno, _status);\r\n    }\r\n\r\n    function getIthOwnedTicketNo(uint i,uint lottery_no) public view lotteryExists(lottery_no) returns(uint,uint8 status) {\r\n        require(i > 0, \"You cannot send 0.\");\r\n        uint ticketno = ticket.ithTicketOfAccount(msg.sender, lottery_no, i);\r\n        uint8 _status = lotteries[lottery_no].tickets[ticketno].isRefunded ? 3 :lotteries[lottery_no].tickets[ticketno].isRedeemed ? 2 : lotteries[lottery_no].tickets[ticketno].isRevealed ? 1 : 0; //will be explained to user in interface\r\n        return (ticketno, _status);\r\n    }\r\n\r\n    //parameter will be time spent since start\r\n    function getLotteryNo(uint unixtimeinweek) public pure returns (uint lottery_no){\r\n        return (unixtimeinweek / lotteryDuration) + 1;\r\n    }\r\n\r\n    function getTotalLotteryMoneyCollected(uint lottery_no) public view lotteryExists(lottery_no) returns (uint amount){\r\n        return lotteries[lottery_no].tickets.length * ticketPrice;\r\n    }\r\n\r\n    function collectTicketRefund(uint ticket_no, uint lottery_no) public lotteryExists(lottery_no) ticketOwner(lottery_no, ticket_no) \r\n    lotteryEnded(lottery_no) {\r\n        require(lotteries[lottery_no].tickets[ticket_no].isRevealed == false, \"You cannot refund because your ticket is revealed.\");\r\n        require(lotteries[lottery_no].tickets[ticket_no].isRefunded == false, \"You cannot refund because your ticket is refunded before.\");\r\n        tl.addTL((ticketPrice / 2), msg.sender);\r\n        lotteries[lottery_no].tickets[ticket_no].isRefunded = true;\r\n    }\r\n\r\n    function timeSinceStart() public view returns (uint){\r\n        return block.timestamp - startDate;\r\n    }\r\n\r\n    function getCurrentStep() public view returns (uint){\r\n        return (timeSinceStart() % lotteryDuration) <= purchaseDuration ? 1 : 2; \r\n    }\r\n\r\n    function checkIfTicketWon(uint ticket_no, uint lottery_no) public lotteryExists(lottery_no) lotteryPrizes(lottery_no)\r\n    ticketOwner(lottery_no, ticket_no) returns (uint amount){\r\n        return lotteries[lottery_no].tickets[ticket_no].reward;\r\n    }\r\n    \r\n    function collectTicketPrize(uint ticket_no, uint lottery_no) public lotteryExists(lottery_no) lotteryPrizes(lottery_no) \r\n    ticketOwner(lottery_no, ticket_no){\r\n        require(lotteries[lottery_no].tickets[ticket_no].reward > 0, \"Ticket does not win any prize.\");\r\n        require(lotteries[lottery_no].tickets[ticket_no].isRedeemed == false, \"Ticket prize has already been collected.\");\r\n        tl.addTL(lotteries[lottery_no].tickets[ticket_no].reward, msg.sender);\r\n        lotteries[lottery_no].tickets[ticket_no].isRedeemed = true;\r\n    }\r\n\r\n    function setWinners(uint256[] memory winners, uint lotteryNo) private {\r\n        uint totalMoney = getTotalLotteryMoneyCollected(lotteryNo);\r\n        for(uint i = 0; i < winners.length; i++){\r\n            lotteries[lotteryNo].tickets[winners[i]].reward = ticket.calculatePrize(i+1, totalMoney);\r\n        }\r\n    }\r\n\r\n    function getIthWinningTicket(uint i, uint lottery_no) public lotteryExists(lottery_no) lotteryPrizes(lottery_no)\r\n    returns (uint ticket_no, uint amount){\r\n        uint winnerCount = ticket.getWinnerCount(lottery_no);\r\n        require(i <= winnerCount, \"There is no winner with that number.\");\r\n        return ticket.getIthWinnerTicket(i, lottery_no, getTotalLotteryMoneyCollected(lottery_no));\r\n    }\r\n}",
  "sourcePath": "C:\\Users\\berfi\\Desktop\\Lessons\\CMPE483\\CMPE483-HW1\\Code\\contracts\\Lottery.sol",
  "compiler": {
    "name": "solc",
    "version": "0.8.14+commit.80d49f37.Emscripten.clang"
  },
  "schemaVersion": "3.4.7",
  "updatedAt": "2022-05-24T20:08:33.798Z",
  "devdoc": {
    "kind": "dev",
    "methods": {},
    "version": 1
  },
  "userdoc": {
    "kind": "user",
    "methods": {},
    "version": 1
  }
}