{
  "contractName": "Lottery",
  "abi": [
    {
      "inputs": [],
      "stateMutability": "nonpayable",
      "type": "constructor"
    },
    {
      "inputs": [
        {
          "internalType": "uint256",
          "name": "amnt",
          "type": "uint256"
        }
      ],
      "name": "depositTL",
      "outputs": [],
      "stateMutability": "nonpayable",
      "type": "function"
    },
    {
      "inputs": [
        {
          "internalType": "uint256",
          "name": "amnt",
          "type": "uint256"
        }
      ],
      "name": "withdrawTL",
      "outputs": [],
      "stateMutability": "nonpayable",
      "type": "function"
    },
    {
      "inputs": [
        {
          "internalType": "address",
          "name": "sender",
          "type": "address"
        }
      ],
      "name": "tlBalance",
      "outputs": [
        {
          "internalType": "uint256",
          "name": "",
          "type": "uint256"
        }
      ],
      "stateMutability": "view",
      "type": "function"
    },
    {
      "inputs": [
        {
          "internalType": "uint256",
          "name": "random",
          "type": "uint256"
        }
      ],
      "name": "attemptBuying",
      "outputs": [],
      "stateMutability": "nonpayable",
      "type": "function"
    },
    {
      "inputs": [
        {
          "internalType": "uint256",
          "name": "ticketno",
          "type": "uint256"
        },
        {
          "internalType": "uint256",
          "name": "rnd_number",
          "type": "uint256"
        }
      ],
      "name": "revealRndNumber",
      "outputs": [],
      "stateMutability": "nonpayable",
      "type": "function"
    },
    {
      "inputs": [
        {
          "internalType": "uint256",
          "name": "lottery_no",
          "type": "uint256"
        }
      ],
      "name": "getLastOwnedTicketNo",
      "outputs": [
        {
          "internalType": "uint256",
          "name": "",
          "type": "uint256"
        },
        {
          "internalType": "uint8",
          "name": "status",
          "type": "uint8"
        }
      ],
      "stateMutability": "view",
      "type": "function"
    },
    {
      "inputs": [
        {
          "internalType": "uint256",
          "name": "i",
          "type": "uint256"
        },
        {
          "internalType": "uint256",
          "name": "lottery_no",
          "type": "uint256"
        }
      ],
      "name": "getIthOwnedTicketNo",
      "outputs": [
        {
          "internalType": "uint256",
          "name": "",
          "type": "uint256"
        },
        {
          "internalType": "uint8",
          "name": "status",
          "type": "uint8"
        }
      ],
      "stateMutability": "view",
      "type": "function"
    },
    {
      "inputs": [
        {
          "internalType": "uint256",
          "name": "unixtimeinweek",
          "type": "uint256"
        }
      ],
      "name": "getLotteryNo",
      "outputs": [
        {
          "internalType": "uint256",
          "name": "lottery_no",
          "type": "uint256"
        }
      ],
      "stateMutability": "pure",
      "type": "function"
    },
    {
      "inputs": [
        {
          "internalType": "uint256",
          "name": "lottery_no",
          "type": "uint256"
        }
      ],
      "name": "getTotalLotteryMoneyCollected",
      "outputs": [
        {
          "internalType": "uint256",
          "name": "amount",
          "type": "uint256"
        }
      ],
      "stateMutability": "view",
      "type": "function"
    },
    {
      "inputs": [
        {
          "internalType": "uint256",
          "name": "ticket_no",
          "type": "uint256"
        },
        {
          "internalType": "uint256",
          "name": "lottery_no",
          "type": "uint256"
        }
      ],
      "name": "collectTicketRefund",
      "outputs": [],
      "stateMutability": "nonpayable",
      "type": "function"
    },
    {
      "inputs": [],
      "name": "timeSinceStart",
      "outputs": [
        {
          "internalType": "uint256",
          "name": "",
          "type": "uint256"
        }
      ],
      "stateMutability": "view",
      "type": "function"
    },
    {
      "inputs": [],
      "name": "getCurrentStep",
      "outputs": [
        {
          "internalType": "uint256",
          "name": "",
          "type": "uint256"
        }
      ],
      "stateMutability": "view",
      "type": "function"
    },
    {
      "inputs": [
        {
          "internalType": "uint256",
          "name": "ticket_no",
          "type": "uint256"
        },
        {
          "internalType": "uint256",
          "name": "lottery_no",
          "type": "uint256"
        }
      ],
      "name": "checkIfTicketWon",
      "outputs": [
        {
          "internalType": "uint256",
          "name": "amount",
          "type": "uint256"
        }
      ],
      "stateMutability": "nonpayable",
      "type": "function"
    },
    {
      "inputs": [
        {
          "internalType": "uint256",
          "name": "ticket_no",
          "type": "uint256"
        },
        {
          "internalType": "uint256",
          "name": "lottery_no",
          "type": "uint256"
        }
      ],
      "name": "collectTicketPrize",
      "outputs": [],
      "stateMutability": "nonpayable",
      "type": "function"
    },
    {
      "inputs": [
        {
          "internalType": "uint256",
          "name": "i",
          "type": "uint256"
        },
        {
          "internalType": "uint256",
          "name": "lottery_no",
          "type": "uint256"
        }
      ],
      "name": "getIthWinningTicket",
      "outputs": [
        {
          "internalType": "uint256",
          "name": "ticket_no",
          "type": "uint256"
        },
        {
          "internalType": "uint256",
          "name": "amount",
          "type": "uint256"
        }
      ],
      "stateMutability": "nonpayable",
      "type": "function"
    }
  ],
  "bytecode": "0x60806040523480156200001157600080fd5b506040516200002090620000b4565b604051809103906000f0801580156200003d573d6000803e3d6000fd5b50600080546001600160a01b0319166001600160a01b03929092169190911790556040516200006c90620000c2565b604051809103906000f08015801562000089573d6000803e3d6000fd5b50600180546001600160a01b0319166001600160a01b039290921691909117905542600255620000d0565b610bd28062001ade83390190565b611aea80620026b083390190565b6119fe80620000e06000396000f3fe608060405234801561001057600080fd5b50600436106100f55760003560e01c80638e36b5a211610097578063a06cc71a11610066578063a06cc71a146101e1578063bfdb6bf5146101f4578063df3c725c14610207578063e54778b51461021a57600080fd5b80638e36b5a2146101955780639329c987146101a85780639c7278ca146101bb5780639eb76341146101ce57600080fd5b806349c67e3c116100d357806349c67e3c1461015257806355a7365414610167578063666378aa1461017a57806367fc6dea1461018d57600080fd5b80631d3824ea146100fa5780632b8bdc001461011557806348367d1e1461013f575b600080fd5b610102610242565b6040519081526020015b60405180910390f35b6101286101233660046116dd565b61027f565b6040805192835260ff90911660208301520161010c565b61012861014d3660046116f6565b6103cb565b6101656101603660046116dd565b61055b565b005b6101656101753660046116f6565b6105c3565b6101026101883660046116dd565b610794565b6101026107e3565b6101026101a33660046116dd565b6107f8565b6101656101b63660046116dd565b610825565b6101656101c93660046116f6565b6108be565b6101656101dc3660046116f6565b610bbe565b6101026101ef3660046116f6565b610ea5565b6101656102023660046116dd565b611069565b610102610215366004611718565b611204565b61022d6102283660046116f6565b611273565b6040805192835260208301919091520161010c565b6000620546006102556203f48082611757565b61025d6107e3565b6102679190611785565b1115610274576002610277565b60015b60ff16905090565b6000808261028e6101a36107e3565b8111156102b65760405162461bcd60e51b81526004016102ad90611799565b60405180910390fd5b60015460405163ca15ed7160e01b8152336004820152602481018690526000916001600160a01b03169063ca15ed7190604401602060405180830381865afa158015610306573d6000803e3d6000fd5b505050506040513d601f19601f8201168201806040525081019061032a91906117d0565b6000868152600360205260408120805492935090918390811061034f5761034f6117e9565b906000526020600020906005020160040160019054906101000a900460ff166103bb576000868152600360205260409020805483908110610392576103926117e9565b600091825260209091206004600590920201015460ff166103b45760006103be565b60016103be565b60025b9194509092505050915091565b600080826103da6101a36107e3565b8111156103f95760405162461bcd60e51b81526004016102ad90611799565b6000851161043e5760405162461bcd60e51b81526020600482015260126024820152712cb7ba9031b0b73737ba1039b2b73210181760711b60448201526064016102ad565b600154604051635ce495d360e11b815233600482015260248101869052604481018790526000916001600160a01b03169063b9c92ba690606401602060405180830381865afa158015610495573d6000803e3d6000fd5b505050506040513d601f19601f820116820180604052508101906104b991906117d0565b600086815260036020526040812080549293509091839081106104de576104de6117e9565b906000526020600020906005020160040160019054906101000a900460ff1661054a576000868152600360205260409020805483908110610521576105216117e9565b600091825260209091206004600590920201015460ff1661054357600061054d565b600161054d565b60025b919791965090945050505050565b60005460405163381f712f60e01b8152600481018390523360248201526001600160a01b039091169063381f712f906044015b600060405180830381600087803b1580156105a857600080fd5b505af11580156105bc573d6000803e3d6000fd5b5050505050565b806105cf6101a36107e3565b8111156105ee5760405162461bcd60e51b81526004016102ad90611799565b600082815260036020526040902080548391859133919083908110610615576106156117e9565b60009182526020909120600160059092020101546001600160a01b03161461064f5760405162461bcd60e51b81526004016102ad906117ff565b838061065c6101a36107e3565b116106795760405162461bcd60e51b81526004016102ad90611836565b6000858152600360205260409020805487908110610699576106996117e9565b600091825260209091206004600590920201015460ff16156107185760405162461bcd60e51b815260206004820152603260248201527f596f752063616e6e6f7420726566756e64206265636175736520796f7572207460448201527134b1b5b2ba1034b9903932bb32b0b632b21760711b60648201526084016102ad565b6000546001600160a01b031663381f712f6107356002600a61186d565b6040516001600160e01b031960e084901b1681526004810191909152336024820152604401600060405180830381600087803b15801561077457600080fd5b505af1158015610788573d6000803e3d6000fd5b50505050505050505050565b6000816107a26101a36107e3565b8111156107c15760405162461bcd60e51b81526004016102ad90611799565b6000838152600360205260409020546107dc90600a90611881565b9392505050565b6000600254426107f391906118a0565b905090565b600061080a6203f48062054600611757565b610814908361186d565b61081f906001611757565b92915050565b8061082f33611204565b10156108875760405162461bcd60e51b815260206004820152602160248201527f596f752068617665206e6f742074686174206d75636820544c20746f6b656e736044820152601760f91b60648201526084016102ad565b600054604051637a158c2160e11b8152600481018390523360248201526001600160a01b039091169063f42b18429060440161058e565b806108ca6101a36107e3565b8111156108e95760405162461bcd60e51b81526004016102ad90611799565b81806108f66101a36107e3565b116109135760405162461bcd60e51b81526004016102ad90611836565b60008181526003602052604090206001015460ff166109e1576001546000906001600160a01b0316632c8eead48361094a81610794565b6040516001600160e01b031960e085901b168152600481019290925260248201526044016000604051808303816000875af115801561098d573d6000803e3d6000fd5b505050506040513d6000823e601f3d908101601f191682016040526109b591908101906118cd565b90506109c1818361142e565b5060008181526003602052604090206001908101805460ff191690911790555b600083815260036020526040902080548491869133919083908110610a0857610a086117e9565b60009182526020909120600160059092020101546001600160a01b031614610a425760405162461bcd60e51b81526004016102ad906117ff565b6000858152600360205260408120805488908110610a6257610a626117e9565b90600052602060002090600502016003015411610ac15760405162461bcd60e51b815260206004820152601e60248201527f5469636b657420646f6573206e6f742077696e20616e79207072697a652e000060448201526064016102ad565b600080548682526003602052604090912080546001600160a01b039092169163381f712f919089908110610af757610af76117e9565b906000526020600020906005020160030154336040518363ffffffff1660e01b8152600401610b399291909182526001600160a01b0316602082015260400190565b600060405180830381600087803b158015610b5357600080fd5b505af1158015610b67573d6000803e3d6000fd5b505050600086815260036020526040902080546001925088908110610b8e57610b8e6117e9565b906000526020600020906005020160040160016101000a81548160ff021916908315150217905550505050505050565b610bc6610242565b600214610c155760405162461bcd60e51b815260206004820152601860248201527f4974206973206e6f742072657665616c20706572696f642e000000000000000060448201526064016102ad565b610c206101a36107e3565b600081815260036020526040902080548491339183908110610c4457610c446117e9565b60009182526020909120600160059092020101546001600160a01b031614610c7e5760405162461bcd60e51b81526004016102ad906117ff565b6000610c8b6101a36107e3565b600081815260036020526040902080549192509086908110610caf57610caf6117e9565b600091825260209091206004600590920201015460ff1615610d225760405162461bcd60e51b815260206004820152602660248201527f596f75206861766520616c72656164792072657665616c65642074686973207460448201526534b1b5b2ba1760d11b60648201526084016102ad565b60008433604051602001610d5292919091825260601b6bffffffffffffffffffffffff1916602082015260340190565b60408051601f19818403018152918152815160209283012060008581526003909352912080549192509087908110610d8c57610d8c6117e9565b9060005260206000209060050201600201548114610dec5760405162461bcd60e51b815260206004820152601d60248201527f456e7465726564206e756d6265727320617265206e6f7420747275652e00000060448201526064016102ad565b6001546040516335eb9e2b60e01b81526004810188905260248101879052604481018490526001600160a01b03909116906335eb9e2b90606401600060405180830381600087803b158015610e4057600080fd5b505af1158015610e54573d6000803e3d6000fd5b505050600083815260036020526040902080546001925088908110610e7b57610e7b6117e9565b60009182526020909120600590910201600401805460ff1916911515919091179055505050505050565b600081610eb36101a36107e3565b811115610ed25760405162461bcd60e51b81526004016102ad90611799565b8280610edf6101a36107e3565b11610efc5760405162461bcd60e51b81526004016102ad90611836565b60008181526003602052604090206001015460ff16610fca576001546000906001600160a01b0316632c8eead483610f3381610794565b6040516001600160e01b031960e085901b168152600481019290925260248201526044016000604051808303816000875af1158015610f76573d6000803e3d6000fd5b505050506040513d6000823e601f3d908101601f19168201604052610f9e91908101906118cd565b9050610faa818361142e565b5060008181526003602052604090206001908101805460ff191690911790555b600084815260036020526040902080548591879133919083908110610ff157610ff16117e9565b60009182526020909120600160059092020101546001600160a01b03161461102b5760405162461bcd60e51b81526004016102ad906117ff565b600086815260036020526040902080548890811061104b5761104b6117e9565b90600052602060002090600502016003015494505050505092915050565b611071610242565b6001146110c05760405162461bcd60e51b815260206004820152601a60248201527f4974206973206e6f7420707572636861736520706572696f642e00000000000060448201526064016102ad565b60006110cd6101a36107e3565b9050600a6110da33611204565b101561114e5760405162461bcd60e51b815260206004820152603760248201527f596f7520646f206e6f74206861766520656e6f75676820544c20546f6b656e7360448201527f2e205469636b6574207072696365206973203130544c2e00000000000000000060648201526084016102ad565b60008181526003602052604090205461271010156111ae5760405162461bcd60e51b815260206004820152601960248201527f416c6c20746865207469636b6574732061726520736f6c642e0000000000000060448201526064016102ad565b600082336040516020016111de92919091825260601b6bffffffffffffffffffffffff1916602082015260340190565b6040516020818303038152906040528051906020012090506111ff81611534565b505050565b600080546040516370a0823160e01b81526001600160a01b038481166004830152909116906370a0823190602401602060405180830381865afa15801561124f573d6000803e3d6000fd5b505050506040513d601f19601f8201168201806040525081019061081f91906117d0565b600080826112826101a36107e3565b8111156112a15760405162461bcd60e51b81526004016102ad90611799565b83806112ae6101a36107e3565b116112cb5760405162461bcd60e51b81526004016102ad90611836565b60008181526003602052604090206001015460ff16611399576001546000906001600160a01b0316632c8eead48361130281610794565b6040516001600160e01b031960e085901b168152600481019290925260248201526044016000604051808303816000875af1158015611345573d6000803e3d6000fd5b505050506040513d6000823e601f3d908101601f1916820160405261136d91908101906118cd565b9050611379818361142e565b5060008181526003602052604090206001908101805460ff191690911790555b6001546001600160a01b0316634d73811787876113b581610794565b6040516001600160e01b031960e086901b1681526004810193909352602483019190915260448201526064016040805180830381865afa1580156113fd573d6000803e3d6000fd5b505050506040513d601f19601f82011682018060405250810190611421919061198b565b9350935050509250929050565b600061143982610794565b905060005b835181101561152e57600180546001600160a01b0316906386bc4e9390611466908490611757565b846040518363ffffffff1660e01b815260040161148d929190918252602082015260400190565b602060405180830381865afa1580156114aa573d6000803e3d6000fd5b505050506040513d601f19601f820116820180604052508101906114ce91906117d0565b600084815260036020526040902085518690849081106114f0576114f06117e9565b602002602001015181548110611508576115086117e9565b600091825260209091206003600590920201015580611526816119af565b91505061143e565b50505050565b60006115416101a36107e3565b600154600082815260036020526040908190205490516304a4955360e11b81523360048201526024810191909152604481018390529192506001600160a01b0316906309492aa690606401600060405180830381600087803b1580156115a657600080fd5b505af11580156115ba573d6000803e3d6000fd5b5050600054604051637a158c2160e11b8152600a60048201523360248201526001600160a01b03909116925063f42b18429150604401600060405180830381600087803b15801561160a57600080fd5b505af115801561161e573d6000803e3d6000fd5b505050600091825250600360208181526040808420815160c081018352815480825233828601908152938201978852606082018781526080830188815260a0840189815260018085018755958a529690982092516005909202909201908155925191830180546001600160a01b0319166001600160a01b039093169290921790915594516002820155935191840191909155905160049092018054915161ffff1990921692151561ff0019169290921761010091151591909102179055565b6000602082840312156116ef57600080fd5b5035919050565b6000806040838503121561170957600080fd5b50508035926020909101359150565b60006020828403121561172a57600080fd5b81356001600160a01b03811681146107dc57600080fd5b634e487b7160e01b600052601160045260246000fd5b6000821982111561176a5761176a611741565b500190565b634e487b7160e01b600052601260045260246000fd5b6000826117945761179461176f565b500690565b60208082526017908201527f4c6f747465727920646f6573206e6f742065786973742e000000000000000000604082015260600190565b6000602082840312156117e257600080fd5b5051919050565b634e487b7160e01b600052603260045260246000fd5b60208082526018908201527f54686973206973206e6f7420796f7572207469636b65742e0000000000000000604082015260600190565b60208082526017908201527f4c6f747465727920697320696e2070726f67726573732e000000000000000000604082015260600190565b60008261187c5761187c61176f565b500490565b600081600019048311821515161561189b5761189b611741565b500290565b6000828210156118b2576118b2611741565b500390565b634e487b7160e01b600052604160045260246000fd5b600060208083850312156118e057600080fd5b825167ffffffffffffffff808211156118f857600080fd5b818501915085601f83011261190c57600080fd5b81518181111561191e5761191e6118b7565b8060051b604051601f19603f83011681018181108582111715611943576119436118b7565b60405291825284820192508381018501918883111561196157600080fd5b938501935b8285101561197f57845184529385019392850192611966565b98975050505050505050565b6000806040838503121561199e57600080fd5b505080516020909101519092909150565b6000600182016119c1576119c1611741565b506001019056fea264697066735822122037f6f0d5b24c0682bd81cd8218199c0de7a5c1ca237d507cdbc31ec3adfbbbe564736f6c634300080d003360806040523480156200001157600080fd5b50604080518082018252600b81526a5475726b6973684c69726160a81b602080830191825283518085019094526002845261151360f21b9084015281519192916200005f916003916200018f565b508051620000759060049060208401906200018f565b5050600580546001600160a01b03191633908117909155620000a19150670de0b6b3a7640000620000a7565b62000298565b6001600160a01b038216620001025760405162461bcd60e51b815260206004820152601f60248201527f45524332303a206d696e7420746f20746865207a65726f206164647265737300604482015260640160405180910390fd5b806002600082825462000116919062000235565b90915550506001600160a01b038216600090815260208190526040812080548392906200014590849062000235565b90915550506040518181526001600160a01b038316906000907fddf252ad1be2c89b69c2b068fc378daa952ba7f163c4a11628f55a4df523b3ef9060200160405180910390a35050565b8280546200019d906200025c565b90600052602060002090601f016020900481019282620001c157600085556200020c565b82601f10620001dc57805160ff19168380011785556200020c565b828001600101855582156200020c579182015b828111156200020c578251825591602001919060010190620001ef565b506200021a9291506200021e565b5090565b5b808211156200021a57600081556001016200021f565b600082198211156200025757634e487b7160e01b600052601160045260246000fd5b500190565b600181811c908216806200027157607f821691505b6020821081036200029257634e487b7160e01b600052602260045260246000fd5b50919050565b61092a80620002a86000396000f3fe608060405234801561001057600080fd5b50600436106100cf5760003560e01c8063395093511161008c578063a457c2d711610066578063a457c2d7146101a2578063a9059cbb146101b5578063dd62ed3e146101c8578063f42b1842146101db57600080fd5b8063395093511461015e57806370a082311461017157806395d89b411461019a57600080fd5b806306fdde03146100d4578063095ea7b3146100f257806318160ddd1461011557806323b872dd14610127578063313ce5671461013a578063381f712f14610149575b600080fd5b6100dc6101ee565b6040516100e99190610745565b60405180910390f35b6101056101003660046107b6565b610280565b60405190151581526020016100e9565b6002545b6040519081526020016100e9565b6101056101353660046107e0565b610298565b604051601281526020016100e9565b61015c61015736600461081c565b6102bc565b005b61010561016c3660046107b6565b6102d7565b61011961017f366004610848565b6001600160a01b031660009081526020819052604090205490565b6100dc6102f9565b6101056101b03660046107b6565b610308565b6101056101c33660046107b6565b610388565b6101196101d636600461086a565b610396565b61015c6101e936600461081c565b6103c1565b6060600380546101fd90610894565b80601f016020809104026020016040519081016040528092919081815260200182805461022990610894565b80156102765780601f1061024b57610100808354040283529160200191610276565b820191906000526020600020905b81548152906001019060200180831161025957829003601f168201915b5050505050905090565b60003361028e8185856103d9565b5060019392505050565b6000336102a68582856104fd565b6102b1858585610577565b506001949350505050565b6005546102d3906001600160a01b03168284610577565b5050565b60003361028e8185856102ea8383610396565b6102f491906108ce565b6103d9565b6060600480546101fd90610894565b600033816103168286610396565b90508381101561037b5760405162461bcd60e51b815260206004820152602560248201527f45524332303a2064656372656173656420616c6c6f77616e63652062656c6f77604482015264207a65726f60d81b60648201526084015b60405180910390fd5b6102b182868684036103d9565b60003361028e818585610577565b6001600160a01b03918216600090815260016020908152604080832093909416825291909152205490565b6005546102d39082906001600160a01b031684610577565b6001600160a01b03831661043b5760405162461bcd60e51b8152602060048201526024808201527f45524332303a20617070726f76652066726f6d20746865207a65726f206164646044820152637265737360e01b6064820152608401610372565b6001600160a01b03821661049c5760405162461bcd60e51b815260206004820152602260248201527f45524332303a20617070726f766520746f20746865207a65726f206164647265604482015261737360f01b6064820152608401610372565b6001600160a01b0383811660008181526001602090815260408083209487168084529482529182902085905590518481527f8c5be1e5ebec7d5bd14f71427d1e84f3dd0314c0f7b2291e5b200ac8c7c3b925910160405180910390a3505050565b60006105098484610396565b9050600019811461057157818110156105645760405162461bcd60e51b815260206004820152601d60248201527f45524332303a20696e73756666696369656e7420616c6c6f77616e63650000006044820152606401610372565b61057184848484036103d9565b50505050565b6001600160a01b0383166105db5760405162461bcd60e51b815260206004820152602560248201527f45524332303a207472616e736665722066726f6d20746865207a65726f206164604482015264647265737360d81b6064820152608401610372565b6001600160a01b03821661063d5760405162461bcd60e51b815260206004820152602360248201527f45524332303a207472616e7366657220746f20746865207a65726f206164647260448201526265737360e81b6064820152608401610372565b6001600160a01b038316600090815260208190526040902054818110156106b55760405162461bcd60e51b815260206004820152602660248201527f45524332303a207472616e7366657220616d6f756e7420657863656564732062604482015265616c616e636560d01b6064820152608401610372565b6001600160a01b038085166000908152602081905260408082208585039055918516815290812080548492906106ec9084906108ce565b92505081905550826001600160a01b0316846001600160a01b03167fddf252ad1be2c89b69c2b068fc378daa952ba7f163c4a11628f55a4df523b3ef8460405161073891815260200190565b60405180910390a3610571565b600060208083528351808285015260005b8181101561077257858101830151858201604001528201610756565b81811115610784576000604083870101525b50601f01601f1916929092016040019392505050565b80356001600160a01b03811681146107b157600080fd5b919050565b600080604083850312156107c957600080fd5b6107d28361079a565b946020939093013593505050565b6000806000606084860312156107f557600080fd5b6107fe8461079a565b925061080c6020850161079a565b9150604084013590509250925092565b6000806040838503121561082f57600080fd5b8235915061083f6020840161079a565b90509250929050565b60006020828403121561085a57600080fd5b6108638261079a565b9392505050565b6000806040838503121561087d57600080fd5b6108868361079a565b915061083f6020840161079a565b600181811c908216806108a857607f821691505b6020821081036108c857634e487b7160e01b600052602260045260246000fd5b50919050565b600082198211156108ef57634e487b7160e01b600052601160045260246000fd5b50019056fea2646970667358221220e862f247e107e6d78f7ff64b7063707660a4247fc6eac53e1dccd944f036e5a864736f6c634300080d003360806040523480156200001157600080fd5b506040805180820182526006815265151a58dad95d60d21b60208083019182528351808501909452600384526254434b60e81b9084015281519192916200005b916000916200007a565b508051620000719060019060208401906200007a565b5050506200015c565b828054620000889062000120565b90600052602060002090601f016020900481019282620000ac5760008555620000f7565b82601f10620000c757805160ff1916838001178555620000f7565b82800160010185558215620000f7579182015b82811115620000f7578251825591602001919060010190620000da565b506200010592915062000109565b5090565b5b808211156200010557600081556001016200010a565b600181811c908216806200013557607f821691505b6020821081036200015657634e487b7160e01b600052602260045260246000fd5b50919050565b61197e806200016c6000396000f3fe608060405234801561001057600080fd5b50600436106101425760003560e01c80636352211e116100b8578063a22cb4651161007c578063a22cb4651461032e578063b88d4fde14610341578063b9c92ba614610354578063c87b56dd14610367578063ca15ed711461037a578063e985e9c51461038d57600080fd5b80636352211e146102da57806370a08231146102ed57806386bc4e931461030057806386c7543b1461031357806395d89b411461032657600080fd5b806323b872dd1161010a57806323b872dd1461020b5780632c8eead41461021e57806335eb9e2b1461023e57806342842e0e1461027e5780634d7381171461029157806358c7f7a5146102b957600080fd5b806301ffc9a71461014757806306fdde031461016f578063081812fc1461018457806309492aa6146101af578063095ea7b3146101f8575b600080fd5b61015a6101553660046112dc565b6103c9565b60405190151581526020015b60405180910390f35b61017761041b565b6040516101669190611351565b610197610192366004611364565b6104ad565b6040516001600160a01b039091168152602001610166565b6101f66101bd366004611399565b6001600160a01b039092166000908152600660209081526040808320948352938152928120805460018101825590825292902090910155565b005b6101f66102063660046113cc565b610547565b6101f66102193660046113f6565b61065c565b61023161022c366004611432565b61068d565b6040516101669190611454565b6101f661024c366004611498565b600090815260096020908152604080832080549094189093556007815291812080546001810182559082529190200155565b6101f661028c3660046113f6565b61079a565b6102a461029f366004611498565b6107b5565b60408051928352602083019190915201610166565b6102cc6102c7366004611432565b61086b565b604051908152602001610166565b6101976102e8366004611364565b6108e4565b6102cc6102fb3660046114c4565b61095b565b6102cc61030e366004611432565b6109e2565b6102cc610321366004611364565b610a36565b610177610a5e565b6101f661033c3660046114df565b610a6d565b6101f661034f366004611531565b610a7c565b6102cc610362366004611399565b610ab4565b610177610375366004611364565b610b84565b6102cc6103883660046113cc565b610c6b565b61015a61039b36600461160d565b6001600160a01b03918216600090815260056020908152604080832093909416825291909152205460ff1690565b60006001600160e01b031982166380ac58cd60e01b14806103fa57506001600160e01b03198216635b5e139f60e01b145b8061041557506301ffc9a760e01b6001600160e01b03198316145b92915050565b60606000805461042a90611640565b80601f016020809104026020016040519081016040528092919081815260200182805461045690611640565b80156104a35780601f10610478576101008083540402835291602001916104a3565b820191906000526020600020905b81548152906001019060200180831161048657829003601f168201915b5050505050905090565b6000818152600260205260408120546001600160a01b031661052b5760405162461bcd60e51b815260206004820152602c60248201527f4552433732313a20617070726f76656420717565727920666f72206e6f6e657860448201526b34b9ba32b73a103a37b5b2b760a11b60648201526084015b60405180910390fd5b506000908152600460205260409020546001600160a01b031690565b6000610552826108e4565b9050806001600160a01b0316836001600160a01b0316036105bf5760405162461bcd60e51b815260206004820152602160248201527f4552433732313a20617070726f76616c20746f2063757272656e74206f776e656044820152603960f91b6064820152608401610522565b336001600160a01b03821614806105db57506105db813361039b565b61064d5760405162461bcd60e51b815260206004820152603860248201527f4552433732313a20617070726f76652063616c6c6572206973206e6f74206f7760448201527f6e6572206e6f7220617070726f76656420666f7220616c6c00000000000000006064820152608401610522565b6106578383610cbf565b505050565b6106663382610d2d565b6106825760405162461bcd60e51b81526004016105229061167a565b610657838383610e24565b6060600061069a83610a36565b905060015b8181116107375760008581526007602090815260408083205460099092528220546106cb90849061086b565b6106d591906116e1565b600087815260086020908152604080832060079092529091208054929350909183908110610705576107056116f5565b60009182526020808320909101548354600181018555938352912090910155508061072f81611721565b91505061069f565b506000848152600860209081526040918290208054835181840281018401909452808452909183018282801561078c57602002820191906000526020600020905b815481526020019060010190808311610778575b505050505091505092915050565b61065783838360405180602001604052806000815250610a7c565b60008281526008602052604081205481908511156108215760405162461bcd60e51b815260206004820152602360248201527f5468657265206973206e6f2077696e6e657220776974682074686174206e756d6044820152623132b960e91b6064820152608401610522565b600084815260086020526040902061083a60018761173a565b8154811061084a5761084a6116f5565b906000526020600020015461085f86856109e2565b91509150935093915050565b6000808260405160200161088191815260200190565b60408051601f198184030181529190528051602090910120905060015b8481116108dc5760408051602081018490520160405160208183030381529060405280519060200120915080806108d490611721565b91505061089e565b509392505050565b6000818152600260205260408120546001600160a01b0316806104155760405162461bcd60e51b815260206004820152602960248201527f4552433732313a206f776e657220717565727920666f72206e6f6e657869737460448201526832b73a103a37b5b2b760b91b6064820152608401610522565b60006001600160a01b0382166109c65760405162461bcd60e51b815260206004820152602a60248201527f4552433732313a2062616c616e636520717565727920666f7220746865207a65604482015269726f206164647265737360b01b6064820152608401610522565b506001600160a01b031660009081526003602052604090205490565b600060026109f160018561173a565b6109fc906002611835565b610a069084611841565b610a1091906116e1565b610a1b846002611835565b610a259084611841565b610a2f9190611855565b9392505050565b6000805b82610a46826002611835565b10156104155780610a5681611721565b915050610a3a565b60606001805461042a90611640565b610a78338383610fc0565b5050565b610a863383610d2d565b610aa25760405162461bcd60e51b81526004016105229061167a565b610aae8484848461108e565b50505050565b6001600160a01b0383166000908152600660209081526040808320858452909152812054821115610b325760405162461bcd60e51b815260206004820152602260248201527f596f7520646f206e6f7420686176652074686174206d756368207469636b6574604482015261399760f11b6064820152608401610522565b6001600160a01b03841660009081526006602090815260408083208684529091529020610b6060018461173a565b81548110610b7057610b706116f5565b906000526020600020015490509392505050565b6000818152600260205260409020546060906001600160a01b0316610c035760405162461bcd60e51b815260206004820152602f60248201527f4552433732314d657461646174613a2055524920717565727920666f72206e6f60448201526e3732bc34b9ba32b73a103a37b5b2b760891b6064820152608401610522565b6000610c1a60408051602081019091526000815290565b90506000815111610c3a5760405180602001604052806000815250610a2f565b80610c44846110c1565b604051602001610c5592919061186d565b6040516020818303038152906040529392505050565b6001600160a01b038216600090815260066020908152604080832084845290915281208054610c9c9060019061173a565b81548110610cac57610cac6116f5565b9060005260206000200154905092915050565b600081815260046020526040902080546001600160a01b0319166001600160a01b0384169081179091558190610cf4826108e4565b6001600160a01b03167f8c5be1e5ebec7d5bd14f71427d1e84f3dd0314c0f7b2291e5b200ac8c7c3b92560405160405180910390a45050565b6000818152600260205260408120546001600160a01b0316610da65760405162461bcd60e51b815260206004820152602c60248201527f4552433732313a206f70657261746f7220717565727920666f72206e6f6e657860448201526b34b9ba32b73a103a37b5b2b760a11b6064820152608401610522565b6000610db1836108e4565b9050806001600160a01b0316846001600160a01b03161480610df857506001600160a01b0380821660009081526005602090815260408083209388168352929052205460ff165b80610e1c5750836001600160a01b0316610e11846104ad565b6001600160a01b0316145b949350505050565b826001600160a01b0316610e37826108e4565b6001600160a01b031614610e9b5760405162461bcd60e51b815260206004820152602560248201527f4552433732313a207472616e736665722066726f6d20696e636f72726563742060448201526437bbb732b960d91b6064820152608401610522565b6001600160a01b038216610efd5760405162461bcd60e51b8152602060048201526024808201527f4552433732313a207472616e7366657220746f20746865207a65726f206164646044820152637265737360e01b6064820152608401610522565b610f08600082610cbf565b6001600160a01b0383166000908152600360205260408120805460019290610f3190849061173a565b90915550506001600160a01b0382166000908152600360205260408120805460019290610f5f908490611855565b909155505060008181526002602052604080822080546001600160a01b0319166001600160a01b0386811691821790925591518493918716917fddf252ad1be2c89b69c2b068fc378daa952ba7f163c4a11628f55a4df523b3ef91a4505050565b816001600160a01b0316836001600160a01b0316036110215760405162461bcd60e51b815260206004820152601960248201527f4552433732313a20617070726f766520746f2063616c6c6572000000000000006044820152606401610522565b6001600160a01b03838116600081815260056020908152604080832094871680845294825291829020805460ff191686151590811790915591519182527f17307eab39ab6107e8899845ad3d59bd9653f200f220920489ca2b5937696c31910160405180910390a3505050565b611099848484610e24565b6110a5848484846111c2565b610aae5760405162461bcd60e51b81526004016105229061189c565b6060816000036110e85750506040805180820190915260018152600360fc1b602082015290565b8160005b811561111257806110fc81611721565b915061110b9050600a83611841565b91506110ec565b60008167ffffffffffffffff81111561112d5761112d61151b565b6040519080825280601f01601f191660200182016040528015611157576020820181803683370190505b5090505b8415610e1c5761116c60018361173a565b9150611179600a866116e1565b611184906030611855565b60f81b818381518110611199576111996116f5565b60200101906001600160f81b031916908160001a9053506111bb600a86611841565b945061115b565b60006001600160a01b0384163b156112b857604051630a85bd0160e11b81526001600160a01b0385169063150b7a02906112069033908990889088906004016118ee565b6020604051808303816000875af1925050508015611241575060408051601f3d908101601f1916820190925261123e9181019061192b565b60015b61129e573d80801561126f576040519150601f19603f3d011682016040523d82523d6000602084013e611274565b606091505b5080516000036112965760405162461bcd60e51b81526004016105229061189c565b805181602001fd5b6001600160e01b031916630a85bd0160e11b149050610e1c565b506001949350505050565b6001600160e01b0319811681146112d957600080fd5b50565b6000602082840312156112ee57600080fd5b8135610a2f816112c3565b60005b838110156113145781810151838201526020016112fc565b83811115610aae5750506000910152565b6000815180845261133d8160208601602086016112f9565b601f01601f19169290920160200192915050565b602081526000610a2f6020830184611325565b60006020828403121561137657600080fd5b5035919050565b80356001600160a01b038116811461139457600080fd5b919050565b6000806000606084860312156113ae57600080fd5b6113b78461137d565b95602085013595506040909401359392505050565b600080604083850312156113df57600080fd5b6113e88361137d565b946020939093013593505050565b60008060006060848603121561140b57600080fd5b6114148461137d565b92506114226020850161137d565b9150604084013590509250925092565b6000806040838503121561144557600080fd5b50508035926020909101359150565b6020808252825182820181905260009190848201906040850190845b8181101561148c57835183529284019291840191600101611470565b50909695505050505050565b6000806000606084860312156114ad57600080fd5b505081359360208301359350604090920135919050565b6000602082840312156114d657600080fd5b610a2f8261137d565b600080604083850312156114f257600080fd5b6114fb8361137d565b91506020830135801515811461151057600080fd5b809150509250929050565b634e487b7160e01b600052604160045260246000fd5b6000806000806080858703121561154757600080fd5b6115508561137d565b935061155e6020860161137d565b925060408501359150606085013567ffffffffffffffff8082111561158257600080fd5b818701915087601f83011261159657600080fd5b8135818111156115a8576115a861151b565b604051601f8201601f19908116603f011681019083821181831017156115d0576115d061151b565b816040528281528a60208487010111156115e957600080fd5b82602086016020830137600060208483010152809550505050505092959194509250565b6000806040838503121561162057600080fd5b6116298361137d565b91506116376020840161137d565b90509250929050565b600181811c9082168061165457607f821691505b60208210810361167457634e487b7160e01b600052602260045260246000fd5b50919050565b60208082526031908201527f4552433732313a207472616e736665722063616c6c6572206973206e6f74206f6040820152701ddb995c881b9bdc88185c1c1c9bdd9959607a1b606082015260800190565b634e487b7160e01b600052601260045260246000fd5b6000826116f0576116f06116cb565b500690565b634e487b7160e01b600052603260045260246000fd5b634e487b7160e01b600052601160045260246000fd5b6000600182016117335761173361170b565b5060010190565b60008282101561174c5761174c61170b565b500390565b600181815b8085111561178c5781600019048211156117725761177261170b565b8085161561177f57918102915b93841c9390800290611756565b509250929050565b6000826117a357506001610415565b816117b057506000610415565b81600181146117c657600281146117d0576117ec565b6001915050610415565b60ff8411156117e1576117e161170b565b50506001821b610415565b5060208310610133831016604e8410600b841016171561180f575081810a610415565b6118198383611751565b806000190482111561182d5761182d61170b565b029392505050565b6000610a2f8383611794565b600082611850576118506116cb565b500490565b600082198211156118685761186861170b565b500190565b6000835161187f8184602088016112f9565b8351908301906118938183602088016112f9565b01949350505050565b60208082526032908201527f4552433732313a207472616e7366657220746f206e6f6e20455243373231526560408201527131b2b4bb32b91034b6b83632b6b2b73a32b960711b606082015260800190565b6001600160a01b038581168252841660208201526040810183905260806060820181905260009061192190830184611325565b9695505050505050565b60006020828403121561193d57600080fd5b8151610a2f816112c356fea2646970667358221220a339549657f3033eed2835d218be4d7c694d29b3d280265afc4e37eb1c3cac6964736f6c634300080d0033",
  "immutableReferences": {},
  "source": "// SPDX-License-Identifier: UNLICENSED\r\n\r\npragma solidity >=0.7.0 <0.9.0;\r\n\r\nimport \"./TL.sol\";\r\nimport \"./Ticket.sol\";\r\n\r\ncontract Lottery {\r\n    TLToken tl;\r\n    TicketToken ticket;\r\n    uint256 constant ticketPrice = 10;\r\n    uint256 constant purchaseDuration = 4 days; //how much time players can buy tickets in each lottery\r\n    uint256 constant revealDuration = 3 days; //how much time players can reveal tickets in each lottery\r\n    uint256 constant lotteryDuration = purchaseDuration + revealDuration; // how much time each lottery will be active\r\n    uint256 startDate; //when the contract started (will be used to determine how much time spend since start)\r\n\r\n    struct Lotteries {\r\n        Tickets[] tickets;\r\n        bool areWinnersChosen;\r\n    }\r\n    \r\n    struct Tickets {\r\n        uint256 id;\r\n        address owner;\r\n        bytes32 hash;\r\n        uint256 reward;\r\n        bool isRevealed;\r\n        bool isRedeemed;\r\n    }\r\n\r\n    mapping(uint256 => Lotteries) lotteries;\r\n    \r\n    constructor(){\r\n        tl = new TLToken();\r\n        ticket = new TicketToken();\r\n        startDate = block.timestamp;\r\n    }\r\n\r\n    modifier lotteryExists(uint256 lotteryNo){\r\n        require(lotteryNo <= getLotteryNo(timeSinceStart()), \"Lottery does not exist.\");\r\n        _;\r\n    }\r\n\r\n    modifier purchasePeriod(){\r\n        require(getCurrentStep() == 1, \"It is not purchase period.\");\r\n        _;\r\n    }\r\n\r\n    modifier revealPeriod(){\r\n        require(getCurrentStep() == 2, \"It is not reveal period.\");\r\n        _;\r\n    }\r\n\r\n    modifier ticketOwner(uint lottery_no, uint ticket_no){\r\n        require(lotteries[lottery_no].tickets[ticket_no].owner == msg.sender, \"This is not your ticket.\");\r\n        _;\r\n    }\r\n\r\n    modifier lotteryPrizes(uint lottery_no){\r\n        require(getLotteryNo(timeSinceStart()) > lottery_no, \"Lottery is in progress.\");\r\n        if(!lotteries[lottery_no].areWinnersChosen){\r\n            uint256[] memory winners = ticket.chooseWinners(lottery_no, getTotalLotteryMoneyCollected(lottery_no));\r\n            setWinners(winners, lottery_no);\r\n            lotteries[lottery_no].areWinnersChosen = true;\r\n        }\r\n        _;\r\n    }\r\n\r\n    modifier lotteryEnded(uint lottery_no){\r\n        require(getLotteryNo(timeSinceStart()) > lottery_no, \"Lottery is in progress.\");\r\n        _;\r\n    }\r\n\r\n    function depositTL(uint amnt) public {\r\n        tl.addTL(amnt, msg.sender);\r\n    }\r\n\r\n    function withdrawTL(uint amnt) public {\r\n        require(tlBalance(msg.sender) >= amnt, \"You have not that much TL tokens.\");\r\n        tl.subtractTL(amnt, msg.sender);\r\n    }\r\n\r\n    function tlBalance(address sender) public view returns(uint256){\r\n        return tl.balanceOf(sender);\r\n    }\r\n\r\n    function buyTicket(bytes32 hash_rnd_number) private {\r\n        uint lotteryNo = getLotteryNo(timeSinceStart());\r\n        ticket.addTicket(msg.sender, lotteries[lotteryNo].tickets.length, lotteryNo);\r\n        tl.subtractTL(ticketPrice, msg.sender);\r\n        lotteries[lotteryNo].tickets.push(\r\n            Tickets({\r\n                id: lotteries[lotteryNo].tickets.length,\r\n                owner: msg.sender,\r\n                hash: hash_rnd_number,\r\n                reward: 0,\r\n                isRevealed: false,\r\n                isRedeemed: false\r\n            })\r\n        );\r\n    }\r\n\r\n    //will be fired to buy ticket before \"buyTicket\" function\r\n    function attemptBuying(uint256 random) public purchasePeriod(){\r\n        uint lotteryNo = getLotteryNo(timeSinceStart());\r\n        require(tlBalance(msg.sender) >= ticketPrice, \"You do not have enough TL Tokens. Ticket price is 10TL.\");\r\n        require(lotteries[lotteryNo].tickets.length <= 10**4, \"All the tickets are sold.\"); //to prevent running out of gas or TL tokens\r\n        bytes32 hash = keccak256(abi.encodePacked(random, msg.sender));\r\n        buyTicket(hash);\r\n    }\r\n\r\n    function revealRndNumber(uint ticketno, uint rnd_number) public revealPeriod() ticketOwner(getLotteryNo(timeSinceStart()), ticketno){\r\n        uint lotteryNo = getLotteryNo(timeSinceStart());\r\n        require(lotteries[lotteryNo].tickets[ticketno].isRevealed == false, \"You have already revealed this ticket.\");\r\n        bytes32 hash = keccak256(abi.encodePacked(rnd_number, msg.sender));\r\n        require(hash == lotteries[lotteryNo].tickets[ticketno].hash, \"Entered numbers are not true.\");\r\n        ticket.revealHash(ticketno, rnd_number, lotteryNo);\r\n        lotteries[lotteryNo].tickets[ticketno].isRevealed = true;\r\n    }\r\n\r\n    function getLastOwnedTicketNo(uint lottery_no) public view lotteryExists(lottery_no) returns(uint,uint8 status){\r\n        uint ticketno = ticket.lastTicketOfAccount(msg.sender, lottery_no);\r\n        uint8 _status = lotteries[lottery_no].tickets[ticketno].isRedeemed ? 2 : lotteries[lottery_no].tickets[ticketno].isRevealed ? 1 : 0;//will be explained to user in interface\r\n        \r\n        return (ticketno, _status);\r\n    }\r\n\r\n    function getIthOwnedTicketNo(uint i,uint lottery_no) public view lotteryExists(lottery_no) returns(uint,uint8 status) {\r\n        require(i > 0, \"You cannot send 0.\");\r\n        uint ticketno = ticket.ithTicketOfAccount(msg.sender, lottery_no, i);\r\n        uint8 _status = lotteries[lottery_no].tickets[ticketno].isRedeemed ? 2 : lotteries[lottery_no].tickets[ticketno].isRevealed ? 1 : 0; //will be explained to user in interface\r\n        return (ticketno, _status);\r\n    }\r\n\r\n    //parameter will be time spent since start\r\n    function getLotteryNo(uint unixtimeinweek) public pure returns (uint lottery_no){\r\n        return (unixtimeinweek / lotteryDuration) + 1;\r\n    }\r\n\r\n    function getTotalLotteryMoneyCollected(uint lottery_no) public view lotteryExists(lottery_no) returns (uint amount){\r\n        return lotteries[lottery_no].tickets.length * ticketPrice;\r\n    }\r\n\r\n    function collectTicketRefund(uint ticket_no, uint lottery_no) public lotteryExists(lottery_no) ticketOwner(lottery_no, ticket_no) \r\n    lotteryEnded(lottery_no) {\r\n        require(lotteries[lottery_no].tickets[ticket_no].isRevealed == false, \"You cannot refund because your ticket is revealed.\");\r\n        tl.addTL((ticketPrice / 2), msg.sender);\r\n    }\r\n\r\n    function timeSinceStart() public view returns (uint){\r\n        return block.timestamp - startDate;\r\n    }\r\n\r\n    function getCurrentStep() public view returns (uint){\r\n        return (timeSinceStart() % lotteryDuration) <= purchaseDuration ? 1 : 2; \r\n    }\r\n\r\n    function checkIfTicketWon(uint ticket_no, uint lottery_no) public lotteryExists(lottery_no) lotteryPrizes(lottery_no)\r\n    ticketOwner(lottery_no, ticket_no) returns (uint amount){\r\n        return lotteries[lottery_no].tickets[ticket_no].reward;\r\n    }\r\n    \r\n    function collectTicketPrize(uint ticket_no, uint lottery_no) public lotteryExists(lottery_no) lotteryPrizes(lottery_no) \r\n    ticketOwner(lottery_no, ticket_no){\r\n        require(lotteries[lottery_no].tickets[ticket_no].reward > 0, \"Ticket does not win any prize.\");\r\n        tl.addTL(lotteries[lottery_no].tickets[ticket_no].reward, msg.sender);\r\n        lotteries[lottery_no].tickets[ticket_no].isRedeemed = true;\r\n    }\r\n\r\n    function setWinners(uint256[] memory winners, uint lotteryNo) private {\r\n        uint totalMoney = getTotalLotteryMoneyCollected(lotteryNo);\r\n        for(uint i = 0; i < winners.length; i++){\r\n            lotteries[lotteryNo].tickets[winners[i]].reward = ticket.calculatePrize(i+1, totalMoney);\r\n        }\r\n    }\r\n\r\n    function getIthWinningTicket(uint i, uint lottery_no) public lotteryExists(lottery_no) lotteryPrizes(lottery_no)\r\n    returns (uint ticket_no, uint amount){\r\n        return ticket.getIthWinnerTicket(i, lottery_no, getTotalLotteryMoneyCollected(lottery_no));\r\n    }\r\n}",
  "sourcePath": "C:\\Users\\berfi\\Desktop\\CMPE483-HW1\\Code\\contracts\\Lottery.sol",
  "compiler": {
    "name": "solc",
    "version": "0.8.13+commit.abaa5c0e.Emscripten.clang"
  },
  "schemaVersion": "3.4.7",
  "updatedAt": "2022-05-05T18:38:02.732Z",
  "devdoc": {
    "kind": "dev",
    "methods": {},
    "version": 1
  },
  "userdoc": {
    "kind": "user",
    "methods": {},
    "version": 1
  }
}