{
  "contractName": "TicketToken",
  "abi": [
    {
      "inputs": [],
      "stateMutability": "nonpayable",
      "type": "constructor"
    },
    {
      "anonymous": false,
      "inputs": [
        {
          "indexed": true,
          "internalType": "address",
          "name": "owner",
          "type": "address"
        },
        {
          "indexed": true,
          "internalType": "address",
          "name": "approved",
          "type": "address"
        },
        {
          "indexed": true,
          "internalType": "uint256",
          "name": "tokenId",
          "type": "uint256"
        }
      ],
      "name": "Approval",
      "type": "event"
    },
    {
      "anonymous": false,
      "inputs": [
        {
          "indexed": true,
          "internalType": "address",
          "name": "owner",
          "type": "address"
        },
        {
          "indexed": true,
          "internalType": "address",
          "name": "operator",
          "type": "address"
        },
        {
          "indexed": false,
          "internalType": "bool",
          "name": "approved",
          "type": "bool"
        }
      ],
      "name": "ApprovalForAll",
      "type": "event"
    },
    {
      "anonymous": false,
      "inputs": [
        {
          "indexed": true,
          "internalType": "address",
          "name": "from",
          "type": "address"
        },
        {
          "indexed": true,
          "internalType": "address",
          "name": "to",
          "type": "address"
        },
        {
          "indexed": true,
          "internalType": "uint256",
          "name": "tokenId",
          "type": "uint256"
        }
      ],
      "name": "Transfer",
      "type": "event"
    },
    {
      "inputs": [
        {
          "internalType": "address",
          "name": "to",
          "type": "address"
        },
        {
          "internalType": "uint256",
          "name": "tokenId",
          "type": "uint256"
        }
      ],
      "name": "approve",
      "outputs": [],
      "stateMutability": "nonpayable",
      "type": "function"
    },
    {
      "inputs": [
        {
          "internalType": "address",
          "name": "owner",
          "type": "address"
        }
      ],
      "name": "balanceOf",
      "outputs": [
        {
          "internalType": "uint256",
          "name": "",
          "type": "uint256"
        }
      ],
      "stateMutability": "view",
      "type": "function"
    },
    {
      "inputs": [
        {
          "internalType": "uint256",
          "name": "tokenId",
          "type": "uint256"
        }
      ],
      "name": "getApproved",
      "outputs": [
        {
          "internalType": "address",
          "name": "",
          "type": "address"
        }
      ],
      "stateMutability": "view",
      "type": "function"
    },
    {
      "inputs": [
        {
          "internalType": "address",
          "name": "owner",
          "type": "address"
        },
        {
          "internalType": "address",
          "name": "operator",
          "type": "address"
        }
      ],
      "name": "isApprovedForAll",
      "outputs": [
        {
          "internalType": "bool",
          "name": "",
          "type": "bool"
        }
      ],
      "stateMutability": "view",
      "type": "function"
    },
    {
      "inputs": [],
      "name": "name",
      "outputs": [
        {
          "internalType": "string",
          "name": "",
          "type": "string"
        }
      ],
      "stateMutability": "view",
      "type": "function"
    },
    {
      "inputs": [
        {
          "internalType": "uint256",
          "name": "tokenId",
          "type": "uint256"
        }
      ],
      "name": "ownerOf",
      "outputs": [
        {
          "internalType": "address",
          "name": "",
          "type": "address"
        }
      ],
      "stateMutability": "view",
      "type": "function"
    },
    {
      "inputs": [
        {
          "internalType": "address",
          "name": "from",
          "type": "address"
        },
        {
          "internalType": "address",
          "name": "to",
          "type": "address"
        },
        {
          "internalType": "uint256",
          "name": "tokenId",
          "type": "uint256"
        }
      ],
      "name": "safeTransferFrom",
      "outputs": [],
      "stateMutability": "nonpayable",
      "type": "function"
    },
    {
      "inputs": [
        {
          "internalType": "address",
          "name": "from",
          "type": "address"
        },
        {
          "internalType": "address",
          "name": "to",
          "type": "address"
        },
        {
          "internalType": "uint256",
          "name": "tokenId",
          "type": "uint256"
        },
        {
          "internalType": "bytes",
          "name": "_data",
          "type": "bytes"
        }
      ],
      "name": "safeTransferFrom",
      "outputs": [],
      "stateMutability": "nonpayable",
      "type": "function"
    },
    {
      "inputs": [
        {
          "internalType": "address",
          "name": "operator",
          "type": "address"
        },
        {
          "internalType": "bool",
          "name": "approved",
          "type": "bool"
        }
      ],
      "name": "setApprovalForAll",
      "outputs": [],
      "stateMutability": "nonpayable",
      "type": "function"
    },
    {
      "inputs": [
        {
          "internalType": "bytes4",
          "name": "interfaceId",
          "type": "bytes4"
        }
      ],
      "name": "supportsInterface",
      "outputs": [
        {
          "internalType": "bool",
          "name": "",
          "type": "bool"
        }
      ],
      "stateMutability": "view",
      "type": "function"
    },
    {
      "inputs": [],
      "name": "symbol",
      "outputs": [
        {
          "internalType": "string",
          "name": "",
          "type": "string"
        }
      ],
      "stateMutability": "view",
      "type": "function"
    },
    {
      "inputs": [
        {
          "internalType": "uint256",
          "name": "tokenId",
          "type": "uint256"
        }
      ],
      "name": "tokenURI",
      "outputs": [
        {
          "internalType": "string",
          "name": "",
          "type": "string"
        }
      ],
      "stateMutability": "view",
      "type": "function"
    },
    {
      "inputs": [
        {
          "internalType": "address",
          "name": "from",
          "type": "address"
        },
        {
          "internalType": "address",
          "name": "to",
          "type": "address"
        },
        {
          "internalType": "uint256",
          "name": "tokenId",
          "type": "uint256"
        }
      ],
      "name": "transferFrom",
      "outputs": [],
      "stateMutability": "nonpayable",
      "type": "function"
    },
    {
      "inputs": [
        {
          "internalType": "address",
          "name": "owner",
          "type": "address"
        },
        {
          "internalType": "uint256",
          "name": "ticketno",
          "type": "uint256"
        },
        {
          "internalType": "uint256",
          "name": "lotteryNo",
          "type": "uint256"
        }
      ],
      "name": "addTicket",
      "outputs": [],
      "stateMutability": "nonpayable",
      "type": "function"
    },
    {
      "inputs": [
        {
          "internalType": "uint256",
          "name": "ticketno",
          "type": "uint256"
        },
        {
          "internalType": "uint256",
          "name": "randomNumber",
          "type": "uint256"
        },
        {
          "internalType": "uint256",
          "name": "lotteryNo",
          "type": "uint256"
        }
      ],
      "name": "revealHash",
      "outputs": [],
      "stateMutability": "nonpayable",
      "type": "function"
    },
    {
      "inputs": [
        {
          "internalType": "address",
          "name": "sender",
          "type": "address"
        },
        {
          "internalType": "uint256",
          "name": "lotteryNo",
          "type": "uint256"
        }
      ],
      "name": "lastTicketOfAccount",
      "outputs": [
        {
          "internalType": "uint256",
          "name": "",
          "type": "uint256"
        }
      ],
      "stateMutability": "view",
      "type": "function"
    },
    {
      "inputs": [
        {
          "internalType": "address",
          "name": "sender",
          "type": "address"
        },
        {
          "internalType": "uint256",
          "name": "lotteryNo",
          "type": "uint256"
        },
        {
          "internalType": "uint256",
          "name": "i",
          "type": "uint256"
        }
      ],
      "name": "ithTicketOfAccount",
      "outputs": [
        {
          "internalType": "uint256",
          "name": "",
          "type": "uint256"
        }
      ],
      "stateMutability": "view",
      "type": "function"
    },
    {
      "inputs": [
        {
          "internalType": "uint256",
          "name": "lotteryNo",
          "type": "uint256"
        },
        {
          "internalType": "uint256",
          "name": "totalMoney",
          "type": "uint256"
        }
      ],
      "name": "chooseWinners",
      "outputs": [
        {
          "internalType": "uint256[]",
          "name": "",
          "type": "uint256[]"
        }
      ],
      "stateMutability": "nonpayable",
      "type": "function"
    },
    {
      "inputs": [
        {
          "internalType": "uint256",
          "name": "a",
          "type": "uint256"
        }
      ],
      "name": "findLogarithm",
      "outputs": [
        {
          "internalType": "uint256",
          "name": "",
          "type": "uint256"
        }
      ],
      "stateMutability": "pure",
      "type": "function"
    },
    {
      "inputs": [
        {
          "internalType": "uint256",
          "name": "n",
          "type": "uint256"
        },
        {
          "internalType": "uint256",
          "name": "random",
          "type": "uint256"
        }
      ],
      "name": "hashNTimes",
      "outputs": [
        {
          "internalType": "uint256",
          "name": "",
          "type": "uint256"
        }
      ],
      "stateMutability": "pure",
      "type": "function"
    },
    {
      "inputs": [
        {
          "internalType": "uint256",
          "name": "prizeNo",
          "type": "uint256"
        },
        {
          "internalType": "uint256",
          "name": "totalMoney",
          "type": "uint256"
        }
      ],
      "name": "calculatePrize",
      "outputs": [
        {
          "internalType": "uint256",
          "name": "",
          "type": "uint256"
        }
      ],
      "stateMutability": "pure",
      "type": "function"
    },
    {
      "inputs": [
        {
          "internalType": "uint256",
          "name": "i",
          "type": "uint256"
        },
        {
          "internalType": "uint256",
          "name": "lottery_no",
          "type": "uint256"
        },
        {
          "internalType": "uint256",
          "name": "totalMoney",
          "type": "uint256"
        }
      ],
      "name": "getIthWinnerTicket",
      "outputs": [
        {
          "internalType": "uint256",
          "name": "ticket_no",
          "type": "uint256"
        },
        {
          "internalType": "uint256",
          "name": "amount",
          "type": "uint256"
        }
      ],
      "stateMutability": "view",
      "type": "function"
    }
  ],
  "bytecode": "0x60806040523480156200001157600080fd5b506040805180820182526006815265151a58dad95d60d21b60208083019182528351808501909452600384526254434b60e81b9084015281519192916200005b916000916200007a565b508051620000719060019060208401906200007a565b5050506200015c565b828054620000889062000120565b90600052602060002090601f016020900481019282620000ac5760008555620000f7565b82601f10620000c757805160ff1916838001178555620000f7565b82800160010185558215620000f7579182015b82811115620000f7578251825591602001919060010190620000da565b506200010592915062000109565b5090565b5b808211156200010557600081556001016200010a565b600181811c908216806200013557607f821691505b6020821081036200015657634e487b7160e01b600052602260045260246000fd5b50919050565b61197e806200016c6000396000f3fe608060405234801561001057600080fd5b50600436106101425760003560e01c80636352211e116100b8578063a22cb4651161007c578063a22cb4651461032e578063b88d4fde14610341578063b9c92ba614610354578063c87b56dd14610367578063ca15ed711461037a578063e985e9c51461038d57600080fd5b80636352211e146102da57806370a08231146102ed57806386bc4e931461030057806386c7543b1461031357806395d89b411461032657600080fd5b806323b872dd1161010a57806323b872dd1461020b5780632c8eead41461021e57806335eb9e2b1461023e57806342842e0e1461027e5780634d7381171461029157806358c7f7a5146102b957600080fd5b806301ffc9a71461014757806306fdde031461016f578063081812fc1461018457806309492aa6146101af578063095ea7b3146101f8575b600080fd5b61015a6101553660046112dc565b6103c9565b60405190151581526020015b60405180910390f35b61017761041b565b6040516101669190611351565b610197610192366004611364565b6104ad565b6040516001600160a01b039091168152602001610166565b6101f66101bd366004611399565b6001600160a01b039092166000908152600660209081526040808320948352938152928120805460018101825590825292902090910155565b005b6101f66102063660046113cc565b610547565b6101f66102193660046113f6565b61065c565b61023161022c366004611432565b61068d565b6040516101669190611454565b6101f661024c366004611498565b600090815260096020908152604080832080549094189093556007815291812080546001810182559082529190200155565b6101f661028c3660046113f6565b61079a565b6102a461029f366004611498565b6107b5565b60408051928352602083019190915201610166565b6102cc6102c7366004611432565b61086b565b604051908152602001610166565b6101976102e8366004611364565b6108e4565b6102cc6102fb3660046114c4565b61095b565b6102cc61030e366004611432565b6109e2565b6102cc610321366004611364565b610a36565b610177610a5e565b6101f661033c3660046114df565b610a6d565b6101f661034f366004611531565b610a7c565b6102cc610362366004611399565b610ab4565b610177610375366004611364565b610b84565b6102cc6103883660046113cc565b610c6b565b61015a61039b36600461160d565b6001600160a01b03918216600090815260056020908152604080832093909416825291909152205460ff1690565b60006001600160e01b031982166380ac58cd60e01b14806103fa57506001600160e01b03198216635b5e139f60e01b145b8061041557506301ffc9a760e01b6001600160e01b03198316145b92915050565b60606000805461042a90611640565b80601f016020809104026020016040519081016040528092919081815260200182805461045690611640565b80156104a35780601f10610478576101008083540402835291602001916104a3565b820191906000526020600020905b81548152906001019060200180831161048657829003601f168201915b5050505050905090565b6000818152600260205260408120546001600160a01b031661052b5760405162461bcd60e51b815260206004820152602c60248201527f4552433732313a20617070726f76656420717565727920666f72206e6f6e657860448201526b34b9ba32b73a103a37b5b2b760a11b60648201526084015b60405180910390fd5b506000908152600460205260409020546001600160a01b031690565b6000610552826108e4565b9050806001600160a01b0316836001600160a01b0316036105bf5760405162461bcd60e51b815260206004820152602160248201527f4552433732313a20617070726f76616c20746f2063757272656e74206f776e656044820152603960f91b6064820152608401610522565b336001600160a01b03821614806105db57506105db813361039b565b61064d5760405162461bcd60e51b815260206004820152603860248201527f4552433732313a20617070726f76652063616c6c6572206973206e6f74206f7760448201527f6e6572206e6f7220617070726f76656420666f7220616c6c00000000000000006064820152608401610522565b6106578383610cbf565b505050565b6106663382610d2d565b6106825760405162461bcd60e51b81526004016105229061167a565b610657838383610e24565b6060600061069a83610a36565b905060015b8181116107375760008581526007602090815260408083205460099092528220546106cb90849061086b565b6106d591906116e1565b600087815260086020908152604080832060079092529091208054929350909183908110610705576107056116f5565b60009182526020808320909101548354600181018555938352912090910155508061072f81611721565b91505061069f565b506000848152600860209081526040918290208054835181840281018401909452808452909183018282801561078c57602002820191906000526020600020905b815481526020019060010190808311610778575b505050505091505092915050565b61065783838360405180602001604052806000815250610a7c565b60008281526008602052604081205481908511156108215760405162461bcd60e51b815260206004820152602360248201527f5468657265206973206e6f2077696e6e657220776974682074686174206e756d6044820152623132b960e91b6064820152608401610522565b600084815260086020526040902061083a60018761173a565b8154811061084a5761084a6116f5565b906000526020600020015461085f86856109e2565b91509150935093915050565b6000808260405160200161088191815260200190565b60408051601f198184030181529190528051602090910120905060015b8481116108dc5760408051602081018490520160405160208183030381529060405280519060200120915080806108d490611721565b91505061089e565b509392505050565b6000818152600260205260408120546001600160a01b0316806104155760405162461bcd60e51b815260206004820152602960248201527f4552433732313a206f776e657220717565727920666f72206e6f6e657869737460448201526832b73a103a37b5b2b760b91b6064820152608401610522565b60006001600160a01b0382166109c65760405162461bcd60e51b815260206004820152602a60248201527f4552433732313a2062616c616e636520717565727920666f7220746865207a65604482015269726f206164647265737360b01b6064820152608401610522565b506001600160a01b031660009081526003602052604090205490565b600060026109f160018561173a565b6109fc906002611835565b610a069084611841565b610a1091906116e1565b610a1b846002611835565b610a259084611841565b610a2f9190611855565b9392505050565b6000805b82610a46826002611835565b10156104155780610a5681611721565b915050610a3a565b60606001805461042a90611640565b610a78338383610fc0565b5050565b610a863383610d2d565b610aa25760405162461bcd60e51b81526004016105229061167a565b610aae8484848461108e565b50505050565b6001600160a01b0383166000908152600660209081526040808320858452909152812054821115610b325760405162461bcd60e51b815260206004820152602260248201527f596f7520646f206e6f7420686176652074686174206d756368207469636b6574604482015261399760f11b6064820152608401610522565b6001600160a01b03841660009081526006602090815260408083208684529091529020610b6060018461173a565b81548110610b7057610b706116f5565b906000526020600020015490509392505050565b6000818152600260205260409020546060906001600160a01b0316610c035760405162461bcd60e51b815260206004820152602f60248201527f4552433732314d657461646174613a2055524920717565727920666f72206e6f60448201526e3732bc34b9ba32b73a103a37b5b2b760891b6064820152608401610522565b6000610c1a60408051602081019091526000815290565b90506000815111610c3a5760405180602001604052806000815250610a2f565b80610c44846110c1565b604051602001610c5592919061186d565b6040516020818303038152906040529392505050565b6001600160a01b038216600090815260066020908152604080832084845290915281208054610c9c9060019061173a565b81548110610cac57610cac6116f5565b9060005260206000200154905092915050565b600081815260046020526040902080546001600160a01b0319166001600160a01b0384169081179091558190610cf4826108e4565b6001600160a01b03167f8c5be1e5ebec7d5bd14f71427d1e84f3dd0314c0f7b2291e5b200ac8c7c3b92560405160405180910390a45050565b6000818152600260205260408120546001600160a01b0316610da65760405162461bcd60e51b815260206004820152602c60248201527f4552433732313a206f70657261746f7220717565727920666f72206e6f6e657860448201526b34b9ba32b73a103a37b5b2b760a11b6064820152608401610522565b6000610db1836108e4565b9050806001600160a01b0316846001600160a01b03161480610df857506001600160a01b0380821660009081526005602090815260408083209388168352929052205460ff165b80610e1c5750836001600160a01b0316610e11846104ad565b6001600160a01b0316145b949350505050565b826001600160a01b0316610e37826108e4565b6001600160a01b031614610e9b5760405162461bcd60e51b815260206004820152602560248201527f4552433732313a207472616e736665722066726f6d20696e636f72726563742060448201526437bbb732b960d91b6064820152608401610522565b6001600160a01b038216610efd5760405162461bcd60e51b8152602060048201526024808201527f4552433732313a207472616e7366657220746f20746865207a65726f206164646044820152637265737360e01b6064820152608401610522565b610f08600082610cbf565b6001600160a01b0383166000908152600360205260408120805460019290610f3190849061173a565b90915550506001600160a01b0382166000908152600360205260408120805460019290610f5f908490611855565b909155505060008181526002602052604080822080546001600160a01b0319166001600160a01b0386811691821790925591518493918716917fddf252ad1be2c89b69c2b068fc378daa952ba7f163c4a11628f55a4df523b3ef91a4505050565b816001600160a01b0316836001600160a01b0316036110215760405162461bcd60e51b815260206004820152601960248201527f4552433732313a20617070726f766520746f2063616c6c6572000000000000006044820152606401610522565b6001600160a01b03838116600081815260056020908152604080832094871680845294825291829020805460ff191686151590811790915591519182527f17307eab39ab6107e8899845ad3d59bd9653f200f220920489ca2b5937696c31910160405180910390a3505050565b611099848484610e24565b6110a5848484846111c2565b610aae5760405162461bcd60e51b81526004016105229061189c565b6060816000036110e85750506040805180820190915260018152600360fc1b602082015290565b8160005b811561111257806110fc81611721565b915061110b9050600a83611841565b91506110ec565b60008167ffffffffffffffff81111561112d5761112d61151b565b6040519080825280601f01601f191660200182016040528015611157576020820181803683370190505b5090505b8415610e1c5761116c60018361173a565b9150611179600a866116e1565b611184906030611855565b60f81b818381518110611199576111996116f5565b60200101906001600160f81b031916908160001a9053506111bb600a86611841565b945061115b565b60006001600160a01b0384163b156112b857604051630a85bd0160e11b81526001600160a01b0385169063150b7a02906112069033908990889088906004016118ee565b6020604051808303816000875af1925050508015611241575060408051601f3d908101601f1916820190925261123e9181019061192b565b60015b61129e573d80801561126f576040519150601f19603f3d011682016040523d82523d6000602084013e611274565b606091505b5080516000036112965760405162461bcd60e51b81526004016105229061189c565b805181602001fd5b6001600160e01b031916630a85bd0160e11b149050610e1c565b506001949350505050565b6001600160e01b0319811681146112d957600080fd5b50565b6000602082840312156112ee57600080fd5b8135610a2f816112c3565b60005b838110156113145781810151838201526020016112fc565b83811115610aae5750506000910152565b6000815180845261133d8160208601602086016112f9565b601f01601f19169290920160200192915050565b602081526000610a2f6020830184611325565b60006020828403121561137657600080fd5b5035919050565b80356001600160a01b038116811461139457600080fd5b919050565b6000806000606084860312156113ae57600080fd5b6113b78461137d565b95602085013595506040909401359392505050565b600080604083850312156113df57600080fd5b6113e88361137d565b946020939093013593505050565b60008060006060848603121561140b57600080fd5b6114148461137d565b92506114226020850161137d565b9150604084013590509250925092565b6000806040838503121561144557600080fd5b50508035926020909101359150565b6020808252825182820181905260009190848201906040850190845b8181101561148c57835183529284019291840191600101611470565b50909695505050505050565b6000806000606084860312156114ad57600080fd5b505081359360208301359350604090920135919050565b6000602082840312156114d657600080fd5b610a2f8261137d565b600080604083850312156114f257600080fd5b6114fb8361137d565b91506020830135801515811461151057600080fd5b809150509250929050565b634e487b7160e01b600052604160045260246000fd5b6000806000806080858703121561154757600080fd5b6115508561137d565b935061155e6020860161137d565b925060408501359150606085013567ffffffffffffffff8082111561158257600080fd5b818701915087601f83011261159657600080fd5b8135818111156115a8576115a861151b565b604051601f8201601f19908116603f011681019083821181831017156115d0576115d061151b565b816040528281528a60208487010111156115e957600080fd5b82602086016020830137600060208483010152809550505050505092959194509250565b6000806040838503121561162057600080fd5b6116298361137d565b91506116376020840161137d565b90509250929050565b600181811c9082168061165457607f821691505b60208210810361167457634e487b7160e01b600052602260045260246000fd5b50919050565b60208082526031908201527f4552433732313a207472616e736665722063616c6c6572206973206e6f74206f6040820152701ddb995c881b9bdc88185c1c1c9bdd9959607a1b606082015260800190565b634e487b7160e01b600052601260045260246000fd5b6000826116f0576116f06116cb565b500690565b634e487b7160e01b600052603260045260246000fd5b634e487b7160e01b600052601160045260246000fd5b6000600182016117335761173361170b565b5060010190565b60008282101561174c5761174c61170b565b500390565b600181815b8085111561178c5781600019048211156117725761177261170b565b8085161561177f57918102915b93841c9390800290611756565b509250929050565b6000826117a357506001610415565b816117b057506000610415565b81600181146117c657600281146117d0576117ec565b6001915050610415565b60ff8411156117e1576117e161170b565b50506001821b610415565b5060208310610133831016604e8410600b841016171561180f575081810a610415565b6118198383611751565b806000190482111561182d5761182d61170b565b029392505050565b6000610a2f8383611794565b600082611850576118506116cb565b500490565b600082198211156118685761186861170b565b500190565b6000835161187f8184602088016112f9565b8351908301906118938183602088016112f9565b01949350505050565b60208082526032908201527f4552433732313a207472616e7366657220746f206e6f6e20455243373231526560408201527131b2b4bb32b91034b6b83632b6b2b73a32b960711b606082015260800190565b6001600160a01b038581168252841660208201526040810183905260806060820181905260009061192190830184611325565b9695505050505050565b60006020828403121561193d57600080fd5b8151610a2f816112c356fea2646970667358221220a339549657f3033eed2835d218be4d7c694d29b3d280265afc4e37eb1c3cac6964736f6c634300080d0033",
  "immutableReferences": {},
  "source": "// SPDX-License-Identifier: UNLICENSED\r\n\r\npragma solidity >=0.7.0 <0.9.0;\r\n\r\nimport \"@openzeppelin/contracts/token/ERC721/ERC721.sol\";\r\n\r\ncontract TicketToken is ERC721 {\r\n    mapping(address => mapping(uint256 => uint256[])) balances; // owned tickets by lottery no and ticket no\r\n    mapping(uint256 => uint256[]) submitted; // submitted tickets for each lottery\r\n    mapping(uint256 => uint256[]) winners; // winner tickets for each lottery\r\n    mapping(uint256 => uint256) xor; // random number for each lottery\r\n\r\n    constructor() ERC721(\"Ticket\", \"TCK\") {\r\n    }\r\n\r\n    function addTicket(address owner, uint ticketno, uint lotteryNo) public {\r\n        balances[owner][lotteryNo].push(ticketno);\r\n    }\r\n\r\n    function revealHash(uint ticketno, uint randomNumber, uint lotteryNo) public {\r\n        xor[lotteryNo] = xor[lotteryNo] ^ randomNumber; //by xoring all the random numbers, will get random numbers to determine winners\r\n        submitted[lotteryNo].push(ticketno);\r\n    }\r\n\r\n    function lastTicketOfAccount(address sender, uint lotteryNo) public view returns(uint256){\r\n        return balances[sender][lotteryNo][balances[sender][lotteryNo].length-1];\r\n    }\r\n\r\n    function ithTicketOfAccount(address sender, uint lotteryNo, uint i) public view returns(uint256){\r\n        require(i <= balances[sender][lotteryNo].length, \"You do not have that much tickets.\");\r\n        return balances[sender][lotteryNo][i-1];\r\n    }\r\n\r\n    function chooseWinners(uint lotteryNo, uint totalMoney) public returns(uint256[] memory){\r\n        uint winnerCount = findLogarithm(totalMoney);\r\n        for(uint i = 1; i <= winnerCount; i++){\r\n            uint winner = hashNTimes(i, xor[lotteryNo]) % submitted[lotteryNo].length;  \r\n            winners[lotteryNo].push(submitted[lotteryNo][winner]);\r\n        }\r\n        return winners[lotteryNo];\r\n    }\r\n\r\n    //to find how much time \"a\" can be divided by 2, will used to determine how much winners a lottery will have\r\n    function findLogarithm(uint a) public pure returns(uint256){\r\n        uint i = 0;\r\n        while(2**i < a){\r\n            i++;\r\n        }\r\n        return i;\r\n    }\r\n\r\n    //random number get hashed n times to determine nth winner of the lottery\r\n    function hashNTimes(uint n, uint random) public pure returns(uint256){\r\n        bytes32 hash = keccak256(abi.encodePacked(random));\r\n        for(uint i = 1; i <= n; i++){\r\n            hash = keccak256(abi.encodePacked(hash));\r\n        }\r\n        return uint256(hash);\r\n    }\r\n\r\n    function calculatePrize(uint prizeNo, uint totalMoney) public pure returns(uint256){\r\n        return ((totalMoney / 2**prizeNo) + ((totalMoney / 2**(prizeNo-1) % 2)));\r\n    }\r\n\r\n    function getIthWinnerTicket(uint i, uint lottery_no, uint totalMoney) public view returns (uint ticket_no,uint amount){\r\n        require(i <= winners[lottery_no].length, \"There is no winner with that number\");\r\n        return (winners[lottery_no][i-1], calculatePrize(i, totalMoney));\r\n    }\r\n}",
  "sourcePath": "C:\\Users\\berfi\\Desktop\\CMPE483-HW1\\Code\\contracts\\Ticket.sol",
  "compiler": {
    "name": "solc",
    "version": "0.8.13+commit.abaa5c0e.Emscripten.clang"
  },
  "schemaVersion": "3.4.7",
  "updatedAt": "2022-05-05T18:38:02.743Z",
  "devdoc": {
    "kind": "dev",
    "methods": {
      "approve(address,uint256)": {
        "details": "See {IERC721-approve}."
      },
      "balanceOf(address)": {
        "details": "See {IERC721-balanceOf}."
      },
      "getApproved(uint256)": {
        "details": "See {IERC721-getApproved}."
      },
      "isApprovedForAll(address,address)": {
        "details": "See {IERC721-isApprovedForAll}."
      },
      "name()": {
        "details": "See {IERC721Metadata-name}."
      },
      "ownerOf(uint256)": {
        "details": "See {IERC721-ownerOf}."
      },
      "safeTransferFrom(address,address,uint256)": {
        "details": "See {IERC721-safeTransferFrom}."
      },
      "safeTransferFrom(address,address,uint256,bytes)": {
        "details": "See {IERC721-safeTransferFrom}."
      },
      "setApprovalForAll(address,bool)": {
        "details": "See {IERC721-setApprovalForAll}."
      },
      "supportsInterface(bytes4)": {
        "details": "See {IERC165-supportsInterface}."
      },
      "symbol()": {
        "details": "See {IERC721Metadata-symbol}."
      },
      "tokenURI(uint256)": {
        "details": "See {IERC721Metadata-tokenURI}."
      },
      "transferFrom(address,address,uint256)": {
        "details": "See {IERC721-transferFrom}."
      }
    },
    "version": 1
  },
  "userdoc": {
    "kind": "user",
    "methods": {},
    "version": 1
  }
}