{
  "contractName": "TicketToken",
  "abi": [
    {
      "inputs": [],
      "stateMutability": "nonpayable",
      "type": "constructor"
    },
    {
      "anonymous": false,
      "inputs": [
        {
          "indexed": true,
          "internalType": "address",
          "name": "owner",
          "type": "address"
        },
        {
          "indexed": true,
          "internalType": "address",
          "name": "approved",
          "type": "address"
        },
        {
          "indexed": true,
          "internalType": "uint256",
          "name": "tokenId",
          "type": "uint256"
        }
      ],
      "name": "Approval",
      "type": "event"
    },
    {
      "anonymous": false,
      "inputs": [
        {
          "indexed": true,
          "internalType": "address",
          "name": "owner",
          "type": "address"
        },
        {
          "indexed": true,
          "internalType": "address",
          "name": "operator",
          "type": "address"
        },
        {
          "indexed": false,
          "internalType": "bool",
          "name": "approved",
          "type": "bool"
        }
      ],
      "name": "ApprovalForAll",
      "type": "event"
    },
    {
      "anonymous": false,
      "inputs": [
        {
          "indexed": true,
          "internalType": "address",
          "name": "from",
          "type": "address"
        },
        {
          "indexed": true,
          "internalType": "address",
          "name": "to",
          "type": "address"
        },
        {
          "indexed": true,
          "internalType": "uint256",
          "name": "tokenId",
          "type": "uint256"
        }
      ],
      "name": "Transfer",
      "type": "event"
    },
    {
      "inputs": [
        {
          "internalType": "address",
          "name": "to",
          "type": "address"
        },
        {
          "internalType": "uint256",
          "name": "tokenId",
          "type": "uint256"
        }
      ],
      "name": "approve",
      "outputs": [],
      "stateMutability": "nonpayable",
      "type": "function"
    },
    {
      "inputs": [
        {
          "internalType": "address",
          "name": "owner",
          "type": "address"
        }
      ],
      "name": "balanceOf",
      "outputs": [
        {
          "internalType": "uint256",
          "name": "",
          "type": "uint256"
        }
      ],
      "stateMutability": "view",
      "type": "function"
    },
    {
      "inputs": [
        {
          "internalType": "uint256",
          "name": "tokenId",
          "type": "uint256"
        }
      ],
      "name": "getApproved",
      "outputs": [
        {
          "internalType": "address",
          "name": "",
          "type": "address"
        }
      ],
      "stateMutability": "view",
      "type": "function"
    },
    {
      "inputs": [
        {
          "internalType": "address",
          "name": "owner",
          "type": "address"
        },
        {
          "internalType": "address",
          "name": "operator",
          "type": "address"
        }
      ],
      "name": "isApprovedForAll",
      "outputs": [
        {
          "internalType": "bool",
          "name": "",
          "type": "bool"
        }
      ],
      "stateMutability": "view",
      "type": "function"
    },
    {
      "inputs": [],
      "name": "name",
      "outputs": [
        {
          "internalType": "string",
          "name": "",
          "type": "string"
        }
      ],
      "stateMutability": "view",
      "type": "function"
    },
    {
      "inputs": [
        {
          "internalType": "uint256",
          "name": "tokenId",
          "type": "uint256"
        }
      ],
      "name": "ownerOf",
      "outputs": [
        {
          "internalType": "address",
          "name": "",
          "type": "address"
        }
      ],
      "stateMutability": "view",
      "type": "function"
    },
    {
      "inputs": [
        {
          "internalType": "address",
          "name": "from",
          "type": "address"
        },
        {
          "internalType": "address",
          "name": "to",
          "type": "address"
        },
        {
          "internalType": "uint256",
          "name": "tokenId",
          "type": "uint256"
        }
      ],
      "name": "safeTransferFrom",
      "outputs": [],
      "stateMutability": "nonpayable",
      "type": "function"
    },
    {
      "inputs": [
        {
          "internalType": "address",
          "name": "from",
          "type": "address"
        },
        {
          "internalType": "address",
          "name": "to",
          "type": "address"
        },
        {
          "internalType": "uint256",
          "name": "tokenId",
          "type": "uint256"
        },
        {
          "internalType": "bytes",
          "name": "_data",
          "type": "bytes"
        }
      ],
      "name": "safeTransferFrom",
      "outputs": [],
      "stateMutability": "nonpayable",
      "type": "function"
    },
    {
      "inputs": [
        {
          "internalType": "address",
          "name": "operator",
          "type": "address"
        },
        {
          "internalType": "bool",
          "name": "approved",
          "type": "bool"
        }
      ],
      "name": "setApprovalForAll",
      "outputs": [],
      "stateMutability": "nonpayable",
      "type": "function"
    },
    {
      "inputs": [
        {
          "internalType": "bytes4",
          "name": "interfaceId",
          "type": "bytes4"
        }
      ],
      "name": "supportsInterface",
      "outputs": [
        {
          "internalType": "bool",
          "name": "",
          "type": "bool"
        }
      ],
      "stateMutability": "view",
      "type": "function"
    },
    {
      "inputs": [],
      "name": "symbol",
      "outputs": [
        {
          "internalType": "string",
          "name": "",
          "type": "string"
        }
      ],
      "stateMutability": "view",
      "type": "function"
    },
    {
      "inputs": [
        {
          "internalType": "uint256",
          "name": "tokenId",
          "type": "uint256"
        }
      ],
      "name": "tokenURI",
      "outputs": [
        {
          "internalType": "string",
          "name": "",
          "type": "string"
        }
      ],
      "stateMutability": "view",
      "type": "function"
    },
    {
      "inputs": [
        {
          "internalType": "address",
          "name": "from",
          "type": "address"
        },
        {
          "internalType": "address",
          "name": "to",
          "type": "address"
        },
        {
          "internalType": "uint256",
          "name": "tokenId",
          "type": "uint256"
        }
      ],
      "name": "transferFrom",
      "outputs": [],
      "stateMutability": "nonpayable",
      "type": "function"
    },
    {
      "inputs": [
        {
          "internalType": "address",
          "name": "owner",
          "type": "address"
        },
        {
          "internalType": "uint256",
          "name": "ticketno",
          "type": "uint256"
        },
        {
          "internalType": "uint256",
          "name": "lotteryNo",
          "type": "uint256"
        }
      ],
      "name": "addTicket",
      "outputs": [],
      "stateMutability": "nonpayable",
      "type": "function"
    },
    {
      "inputs": [
        {
          "internalType": "uint256",
          "name": "ticketno",
          "type": "uint256"
        },
        {
          "internalType": "uint256",
          "name": "randomNumber",
          "type": "uint256"
        },
        {
          "internalType": "uint256",
          "name": "lotteryNo",
          "type": "uint256"
        }
      ],
      "name": "revealHash",
      "outputs": [],
      "stateMutability": "nonpayable",
      "type": "function"
    },
    {
      "inputs": [
        {
          "internalType": "address",
          "name": "sender",
          "type": "address"
        },
        {
          "internalType": "uint256",
          "name": "lotteryNo",
          "type": "uint256"
        }
      ],
      "name": "lastTicketOfAccount",
      "outputs": [
        {
          "internalType": "uint256",
          "name": "",
          "type": "uint256"
        }
      ],
      "stateMutability": "view",
      "type": "function"
    },
    {
      "inputs": [
        {
          "internalType": "address",
          "name": "sender",
          "type": "address"
        },
        {
          "internalType": "uint256",
          "name": "lotteryNo",
          "type": "uint256"
        },
        {
          "internalType": "uint256",
          "name": "i",
          "type": "uint256"
        }
      ],
      "name": "ithTicketOfAccount",
      "outputs": [
        {
          "internalType": "uint256",
          "name": "",
          "type": "uint256"
        }
      ],
      "stateMutability": "view",
      "type": "function"
    },
    {
      "inputs": [
        {
          "internalType": "uint256",
          "name": "lotteryNo",
          "type": "uint256"
        },
        {
          "internalType": "uint256",
          "name": "totalMoney",
          "type": "uint256"
        }
      ],
      "name": "chooseWinners",
      "outputs": [
        {
          "internalType": "uint256[]",
          "name": "",
          "type": "uint256[]"
        }
      ],
      "stateMutability": "nonpayable",
      "type": "function"
    },
    {
      "inputs": [
        {
          "internalType": "uint256",
          "name": "a",
          "type": "uint256"
        }
      ],
      "name": "findLogarithm",
      "outputs": [
        {
          "internalType": "uint256",
          "name": "",
          "type": "uint256"
        }
      ],
      "stateMutability": "pure",
      "type": "function"
    },
    {
      "inputs": [
        {
          "internalType": "uint256",
          "name": "n",
          "type": "uint256"
        },
        {
          "internalType": "uint256",
          "name": "random",
          "type": "uint256"
        }
      ],
      "name": "hashNTimes",
      "outputs": [
        {
          "internalType": "uint256",
          "name": "",
          "type": "uint256"
        }
      ],
      "stateMutability": "pure",
      "type": "function"
    },
    {
      "inputs": [
        {
          "internalType": "uint256",
          "name": "prizeNo",
          "type": "uint256"
        },
        {
          "internalType": "uint256",
          "name": "totalMoney",
          "type": "uint256"
        }
      ],
      "name": "calculatePrize",
      "outputs": [
        {
          "internalType": "uint256",
          "name": "",
          "type": "uint256"
        }
      ],
      "stateMutability": "pure",
      "type": "function"
    },
    {
      "inputs": [
        {
          "internalType": "uint256",
          "name": "i",
          "type": "uint256"
        },
        {
          "internalType": "uint256",
          "name": "lottery_no",
          "type": "uint256"
        },
        {
          "internalType": "uint256",
          "name": "totalMoney",
          "type": "uint256"
        }
      ],
      "name": "getIthWinnerTicket",
      "outputs": [
        {
          "internalType": "uint256",
          "name": "ticket_no",
          "type": "uint256"
        },
        {
          "internalType": "uint256",
          "name": "amount",
          "type": "uint256"
        }
      ],
      "stateMutability": "view",
      "type": "function"
    },
    {
      "inputs": [
        {
          "internalType": "uint256",
          "name": "lotteryNo",
          "type": "uint256"
        }
      ],
      "name": "getWinnerCount",
      "outputs": [
        {
          "internalType": "uint256",
          "name": "",
          "type": "uint256"
        }
      ],
      "stateMutability": "view",
      "type": "function"
    }
  ],
  "bytecode": "0x60806040523480156200001157600080fd5b506040805180820182526006815265151a58dad95d60d21b60208083019182528351808501909452600384526254434b60e81b9084015281519192916200005b916000916200007a565b508051620000719060019060208401906200007a565b5050506200015c565b828054620000889062000120565b90600052602060002090601f016020900481019282620000ac5760008555620000f7565b82601f10620000c757805160ff1916838001178555620000f7565b82800160010185558215620000f7579182015b82811115620000f7578251825591602001919060010190620000da565b506200010592915062000109565b5090565b5b808211156200010557600081556001016200010a565b600181811c908216806200013557607f821691505b6020821081036200015657634e487b7160e01b600052602260045260246000fd5b50919050565b611a32806200016c6000396000f3fe608060405234801561001057600080fd5b506004361061014d5760003560e01c806358c7f7a5116100c3578063a22cb4651161007c578063a22cb46514610359578063b88d4fde1461036c578063b9c92ba61461037f578063c87b56dd14610392578063ca15ed71146103a5578063e985e9c5146103b857600080fd5b806358c7f7a5146102f25780636352211e1461030557806370a082311461031857806386bc4e931461032b57806386c7543b1461033e57806395d89b411461035157600080fd5b8063097c079311610115578063097c07931461021657806323b872dd146102445780632c8eead41461025757806335eb9e2b1461027757806342842e0e146102b75780634d738117146102ca57600080fd5b806301ffc9a71461015257806306fdde031461017a578063081812fc1461018f57806309492aa6146101ba578063095ea7b314610203575b600080fd5b610165610160366004611390565b6103f4565b60405190151581526020015b60405180910390f35b610182610446565b6040516101719190611405565b6101a261019d366004611418565b6104d8565b6040516001600160a01b039091168152602001610171565b6102016101c836600461144d565b6001600160a01b039092166000908152600660209081526040808320948352938152928120805460018101825590825292902090910155565b005b610201610211366004611480565b610572565b610236610224366004611418565b60009081526008602052604090205490565b604051908152602001610171565b6102016102523660046114aa565b610687565b61026a6102653660046114e6565b6106b8565b6040516101719190611508565b61020161028536600461154c565b600090815260096020908152604080832080549094189093556007815291812080546001810182559082529190200155565b6102016102c53660046114aa565b610833565b6102dd6102d836600461154c565b61084e565b60408051928352602083019190915201610171565b6102366103003660046114e6565b61089a565b6101a2610313366004611418565b610913565b610236610326366004611578565b61098a565b6102366103393660046114e6565b610a11565b61023661034c366004611418565b610a65565b610182610a8d565b610201610367366004611593565b610a9c565b61020161037a3660046115e5565b610aab565b61023661038d36600461144d565b610ae3565b6101826103a0366004611418565b610bb3565b6102366103b3366004611480565b610c9a565b6101656103c63660046116c1565b6001600160a01b03918216600090815260056020908152604080832093909416825291909152205460ff1690565b60006001600160e01b031982166380ac58cd60e01b148061042557506001600160e01b03198216635b5e139f60e01b145b8061044057506301ffc9a760e01b6001600160e01b03198316145b92915050565b606060008054610455906116f4565b80601f0160208091040260200160405190810160405280929190818152602001828054610481906116f4565b80156104ce5780601f106104a3576101008083540402835291602001916104ce565b820191906000526020600020905b8154815290600101906020018083116104b157829003601f168201915b5050505050905090565b6000818152600260205260408120546001600160a01b03166105565760405162461bcd60e51b815260206004820152602c60248201527f4552433732313a20617070726f76656420717565727920666f72206e6f6e657860448201526b34b9ba32b73a103a37b5b2b760a11b60648201526084015b60405180910390fd5b506000908152600460205260409020546001600160a01b031690565b600061057d82610913565b9050806001600160a01b0316836001600160a01b0316036105ea5760405162461bcd60e51b815260206004820152602160248201527f4552433732313a20617070726f76616c20746f2063757272656e74206f776e656044820152603960f91b606482015260840161054d565b336001600160a01b0382161480610606575061060681336103c6565b6106785760405162461bcd60e51b815260206004820152603860248201527f4552433732313a20617070726f76652063616c6c6572206973206e6f74206f7760448201527f6e6572206e6f7220617070726f76656420666f7220616c6c0000000000000000606482015260840161054d565b6106828383610d73565b505050565b6106913382610de1565b6106ad5760405162461bcd60e51b815260040161054d9061172e565b610682838383610ed8565b6000828152600760205260409020546060906107285760405162461bcd60e51b815260206004820152602960248201527f4e6f206f6e6520686173207375626d69747465642e205468657265206973206e60448201526837903bb4b73732b91760b91b606482015260840161054d565b600061073383610a65565b905060015b8181116107d057600085815260076020908152604080832054600990925282205461076490849061089a565b61076e9190611795565b60008781526008602090815260408083206007909252909120805492935090918390811061079e5761079e6117a9565b6000918252602080832090910154835460018101855593835291209091015550806107c8816117d5565b915050610738565b506000848152600860209081526040918290208054835181840281018401909452808452909183018282801561082557602002820191906000526020600020905b815481526020019060010190808311610811575b505050505091505092915050565b61068283838360405180602001604052806000815250610aab565b600082815260086020526040812081906108696001876117ee565b81548110610879576108796117a9565b906000526020600020015461088e8685610a11565b91509150935093915050565b600080826040516020016108b091815260200190565b60408051601f198184030181529190528051602090910120905060015b84811161090b576040805160208101849052016040516020818303038152906040528051906020012091508080610903906117d5565b9150506108cd565b509392505050565b6000818152600260205260408120546001600160a01b0316806104405760405162461bcd60e51b815260206004820152602960248201527f4552433732313a206f776e657220717565727920666f72206e6f6e657869737460448201526832b73a103a37b5b2b760b91b606482015260840161054d565b60006001600160a01b0382166109f55760405162461bcd60e51b815260206004820152602a60248201527f4552433732313a2062616c616e636520717565727920666f7220746865207a65604482015269726f206164647265737360b01b606482015260840161054d565b506001600160a01b031660009081526003602052604090205490565b60006002610a206001856117ee565b610a2b9060026118e9565b610a3590846118f5565b610a3f9190611795565b610a4a8460026118e9565b610a5490846118f5565b610a5e9190611909565b9392505050565b6000805b82610a758260026118e9565b10156104405780610a85816117d5565b915050610a69565b606060018054610455906116f4565b610aa7338383611074565b5050565b610ab53383610de1565b610ad15760405162461bcd60e51b815260040161054d9061172e565b610add84848484611142565b50505050565b6001600160a01b0383166000908152600660209081526040808320858452909152812054821115610b615760405162461bcd60e51b815260206004820152602260248201527f596f7520646f206e6f7420686176652074686174206d756368207469636b6574604482015261399760f11b606482015260840161054d565b6001600160a01b03841660009081526006602090815260408083208684529091529020610b8f6001846117ee565b81548110610b9f57610b9f6117a9565b906000526020600020015490509392505050565b6000818152600260205260409020546060906001600160a01b0316610c325760405162461bcd60e51b815260206004820152602f60248201527f4552433732314d657461646174613a2055524920717565727920666f72206e6f60448201526e3732bc34b9ba32b73a103a37b5b2b760891b606482015260840161054d565b6000610c4960408051602081019091526000815290565b90506000815111610c695760405180602001604052806000815250610a5e565b80610c7384611175565b604051602001610c84929190611921565b6040516020818303038152906040529392505050565b6001600160a01b0382166000908152600660209081526040808320848452909152812054610d1f5760405162461bcd60e51b815260206004820152602c60248201527f596f7520646f206e6f74206861766520616e79207469636b657420666f72207460448201526b3434b9903637ba3a32b93c9760a11b606482015260840161054d565b6001600160a01b038316600090815260066020908152604080832085845290915290208054610d50906001906117ee565b81548110610d6057610d606117a9565b9060005260206000200154905092915050565b600081815260046020526040902080546001600160a01b0319166001600160a01b0384169081179091558190610da882610913565b6001600160a01b03167f8c5be1e5ebec7d5bd14f71427d1e84f3dd0314c0f7b2291e5b200ac8c7c3b92560405160405180910390a45050565b6000818152600260205260408120546001600160a01b0316610e5a5760405162461bcd60e51b815260206004820152602c60248201527f4552433732313a206f70657261746f7220717565727920666f72206e6f6e657860448201526b34b9ba32b73a103a37b5b2b760a11b606482015260840161054d565b6000610e6583610913565b9050806001600160a01b0316846001600160a01b03161480610eac57506001600160a01b0380821660009081526005602090815260408083209388168352929052205460ff165b80610ed05750836001600160a01b0316610ec5846104d8565b6001600160a01b0316145b949350505050565b826001600160a01b0316610eeb82610913565b6001600160a01b031614610f4f5760405162461bcd60e51b815260206004820152602560248201527f4552433732313a207472616e736665722066726f6d20696e636f72726563742060448201526437bbb732b960d91b606482015260840161054d565b6001600160a01b038216610fb15760405162461bcd60e51b8152602060048201526024808201527f4552433732313a207472616e7366657220746f20746865207a65726f206164646044820152637265737360e01b606482015260840161054d565b610fbc600082610d73565b6001600160a01b0383166000908152600360205260408120805460019290610fe59084906117ee565b90915550506001600160a01b0382166000908152600360205260408120805460019290611013908490611909565b909155505060008181526002602052604080822080546001600160a01b0319166001600160a01b0386811691821790925591518493918716917fddf252ad1be2c89b69c2b068fc378daa952ba7f163c4a11628f55a4df523b3ef91a4505050565b816001600160a01b0316836001600160a01b0316036110d55760405162461bcd60e51b815260206004820152601960248201527f4552433732313a20617070726f766520746f2063616c6c657200000000000000604482015260640161054d565b6001600160a01b03838116600081815260056020908152604080832094871680845294825291829020805460ff191686151590811790915591519182527f17307eab39ab6107e8899845ad3d59bd9653f200f220920489ca2b5937696c31910160405180910390a3505050565b61114d848484610ed8565b61115984848484611276565b610add5760405162461bcd60e51b815260040161054d90611950565b60608160000361119c5750506040805180820190915260018152600360fc1b602082015290565b8160005b81156111c657806111b0816117d5565b91506111bf9050600a836118f5565b91506111a0565b60008167ffffffffffffffff8111156111e1576111e16115cf565b6040519080825280601f01601f19166020018201604052801561120b576020820181803683370190505b5090505b8415610ed0576112206001836117ee565b915061122d600a86611795565b611238906030611909565b60f81b81838151811061124d5761124d6117a9565b60200101906001600160f81b031916908160001a90535061126f600a866118f5565b945061120f565b60006001600160a01b0384163b1561136c57604051630a85bd0160e11b81526001600160a01b0385169063150b7a02906112ba9033908990889088906004016119a2565b6020604051808303816000875af19250505080156112f5575060408051601f3d908101601f191682019092526112f2918101906119df565b60015b611352573d808015611323576040519150601f19603f3d011682016040523d82523d6000602084013e611328565b606091505b50805160000361134a5760405162461bcd60e51b815260040161054d90611950565b805181602001fd5b6001600160e01b031916630a85bd0160e11b149050610ed0565b506001949350505050565b6001600160e01b03198116811461138d57600080fd5b50565b6000602082840312156113a257600080fd5b8135610a5e81611377565b60005b838110156113c85781810151838201526020016113b0565b83811115610add5750506000910152565b600081518084526113f18160208601602086016113ad565b601f01601f19169290920160200192915050565b602081526000610a5e60208301846113d9565b60006020828403121561142a57600080fd5b5035919050565b80356001600160a01b038116811461144857600080fd5b919050565b60008060006060848603121561146257600080fd5b61146b84611431565b95602085013595506040909401359392505050565b6000806040838503121561149357600080fd5b61149c83611431565b946020939093013593505050565b6000806000606084860312156114bf57600080fd5b6114c884611431565b92506114d660208501611431565b9150604084013590509250925092565b600080604083850312156114f957600080fd5b50508035926020909101359150565b6020808252825182820181905260009190848201906040850190845b8181101561154057835183529284019291840191600101611524565b50909695505050505050565b60008060006060848603121561156157600080fd5b505081359360208301359350604090920135919050565b60006020828403121561158a57600080fd5b610a5e82611431565b600080604083850312156115a657600080fd5b6115af83611431565b9150602083013580151581146115c457600080fd5b809150509250929050565b634e487b7160e01b600052604160045260246000fd5b600080600080608085870312156115fb57600080fd5b61160485611431565b935061161260208601611431565b925060408501359150606085013567ffffffffffffffff8082111561163657600080fd5b818701915087601f83011261164a57600080fd5b81358181111561165c5761165c6115cf565b604051601f8201601f19908116603f01168101908382118183101715611684576116846115cf565b816040528281528a602084870101111561169d57600080fd5b82602086016020830137600060208483010152809550505050505092959194509250565b600080604083850312156116d457600080fd5b6116dd83611431565b91506116eb60208401611431565b90509250929050565b600181811c9082168061170857607f821691505b60208210810361172857634e487b7160e01b600052602260045260246000fd5b50919050565b60208082526031908201527f4552433732313a207472616e736665722063616c6c6572206973206e6f74206f6040820152701ddb995c881b9bdc88185c1c1c9bdd9959607a1b606082015260800190565b634e487b7160e01b600052601260045260246000fd5b6000826117a4576117a461177f565b500690565b634e487b7160e01b600052603260045260246000fd5b634e487b7160e01b600052601160045260246000fd5b6000600182016117e7576117e76117bf565b5060010190565b600082821015611800576118006117bf565b500390565b600181815b80851115611840578160001904821115611826576118266117bf565b8085161561183357918102915b93841c939080029061180a565b509250929050565b60008261185757506001610440565b8161186457506000610440565b816001811461187a5760028114611884576118a0565b6001915050610440565b60ff841115611895576118956117bf565b50506001821b610440565b5060208310610133831016604e8410600b84101617156118c3575081810a610440565b6118cd8383611805565b80600019048211156118e1576118e16117bf565b029392505050565b6000610a5e8383611848565b6000826119045761190461177f565b500490565b6000821982111561191c5761191c6117bf565b500190565b600083516119338184602088016113ad565b8351908301906119478183602088016113ad565b01949350505050565b60208082526032908201527f4552433732313a207472616e7366657220746f206e6f6e20455243373231526560408201527131b2b4bb32b91034b6b83632b6b2b73a32b960711b606082015260800190565b6001600160a01b03858116825284166020820152604081018390526080606082018190526000906119d5908301846113d9565b9695505050505050565b6000602082840312156119f157600080fd5b8151610a5e8161137756fea2646970667358221220a3f863c5709e43a13cc91cf865503bfec7551b158c5238a7725510d15420ac4864736f6c634300080e0033",
  "immutableReferences": {},
  "source": "// SPDX-License-Identifier: UNLICENSED\r\n\r\npragma solidity >=0.7.0 <0.9.0;\r\n\r\nimport \"@openzeppelin/contracts/token/ERC721/ERC721.sol\";\r\n\r\ncontract TicketToken is ERC721 {\r\n    mapping(address => mapping(uint256 => uint256[])) balances; // owned tickets by lottery no and ticket no\r\n    mapping(uint256 => uint256[]) submitted; // submitted tickets for each lottery\r\n    mapping(uint256 => uint256[]) winners; // winner tickets for each lottery\r\n    mapping(uint256 => uint256) xor; // random number for each lottery\r\n\r\n    constructor() ERC721(\"Ticket\", \"TCK\") {\r\n    }\r\n\r\n    function addTicket(address owner, uint ticketno, uint lotteryNo) public {\r\n        balances[owner][lotteryNo].push(ticketno);\r\n    }\r\n\r\n    function revealHash(uint ticketno, uint randomNumber, uint lotteryNo) public {\r\n        xor[lotteryNo] = xor[lotteryNo] ^ randomNumber; //by xoring all the random numbers, will get random numbers to determine winners\r\n        submitted[lotteryNo].push(ticketno);\r\n    }\r\n\r\n    function lastTicketOfAccount(address sender, uint lotteryNo) public view returns(uint256){\r\n        require(balances[sender][lotteryNo].length > 0, \"You do not have any ticket for this lottery.\");\r\n        return balances[sender][lotteryNo][balances[sender][lotteryNo].length-1];\r\n    }\r\n\r\n    function ithTicketOfAccount(address sender, uint lotteryNo, uint i) public view returns(uint256){\r\n        require(i <= balances[sender][lotteryNo].length, \"You do not have that much tickets.\");\r\n        return balances[sender][lotteryNo][i-1];\r\n    }\r\n\r\n    function chooseWinners(uint lotteryNo, uint totalMoney) public returns(uint256[] memory){\r\n        require(submitted[lotteryNo].length > 0, \"No one has submitted. There is no winner.\");\r\n        uint winnerCount = findLogarithm(totalMoney);\r\n        for(uint i = 1; i <= winnerCount; i++){\r\n            uint winner = hashNTimes(i, xor[lotteryNo]) % submitted[lotteryNo].length;  \r\n            winners[lotteryNo].push(submitted[lotteryNo][winner]);\r\n        }\r\n        return winners[lotteryNo];\r\n    }\r\n\r\n    //to find how much time \"a\" can be divided by 2, will used to determine how much winners a lottery will have\r\n    function findLogarithm(uint a) public pure returns(uint256){\r\n        uint i = 0;\r\n        while(2**i < a){\r\n            i++;\r\n        }\r\n        return i;\r\n    }\r\n\r\n    //random number get hashed n times to determine nth winner of the lottery\r\n    function hashNTimes(uint n, uint random) public pure returns(uint256){\r\n        bytes32 hash = keccak256(abi.encodePacked(random));\r\n        for(uint i = 1; i <= n; i++){\r\n            hash = keccak256(abi.encodePacked(hash));\r\n        }\r\n        return uint256(hash);\r\n    }\r\n\r\n    function calculatePrize(uint prizeNo, uint totalMoney) public pure returns(uint256){\r\n        return ((totalMoney / 2**prizeNo) + ((totalMoney / 2**(prizeNo-1) % 2)));\r\n    }\r\n\r\n    function getIthWinnerTicket(uint i, uint lottery_no, uint totalMoney) public view returns (uint ticket_no,uint amount){\r\n        return (winners[lottery_no][i-1], calculatePrize(i, totalMoney));\r\n    }\r\n\r\n    function getWinnerCount(uint lotteryNo) public view returns(uint){\r\n        return winners[lotteryNo].length;\r\n    }\r\n}",
  "sourcePath": "C:\\Users\\berfi\\Desktop\\Lessons\\CMPE483\\CMPE483-HW1\\Code\\contracts\\Ticket.sol",
  "compiler": {
    "name": "solc",
    "version": "0.8.14+commit.80d49f37.Emscripten.clang"
  },
  "schemaVersion": "3.4.7",
  "updatedAt": "2022-05-24T20:08:33.812Z",
  "devdoc": {
    "kind": "dev",
    "methods": {
      "approve(address,uint256)": {
        "details": "See {IERC721-approve}."
      },
      "balanceOf(address)": {
        "details": "See {IERC721-balanceOf}."
      },
      "getApproved(uint256)": {
        "details": "See {IERC721-getApproved}."
      },
      "isApprovedForAll(address,address)": {
        "details": "See {IERC721-isApprovedForAll}."
      },
      "name()": {
        "details": "See {IERC721Metadata-name}."
      },
      "ownerOf(uint256)": {
        "details": "See {IERC721-ownerOf}."
      },
      "safeTransferFrom(address,address,uint256)": {
        "details": "See {IERC721-safeTransferFrom}."
      },
      "safeTransferFrom(address,address,uint256,bytes)": {
        "details": "See {IERC721-safeTransferFrom}."
      },
      "setApprovalForAll(address,bool)": {
        "details": "See {IERC721-setApprovalForAll}."
      },
      "supportsInterface(bytes4)": {
        "details": "See {IERC165-supportsInterface}."
      },
      "symbol()": {
        "details": "See {IERC721Metadata-symbol}."
      },
      "tokenURI(uint256)": {
        "details": "See {IERC721Metadata-tokenURI}."
      },
      "transferFrom(address,address,uint256)": {
        "details": "See {IERC721-transferFrom}."
      }
    },
    "version": 1
  },
  "userdoc": {
    "kind": "user",
    "methods": {},
    "version": 1
  }
}